:020000040800F2
:100000000000022009810008017F00080F7F00081E
:10001000157F00081B7F0008217F000800000000FA
:100020000000000000000000000000001165000852
:10003000277F00080000000051670008B96700082A
:100040005981000859810008598100085981000828
:100050005981000859810008598100085981000818
:100060005981000859810008598100085981000808
:1000700059810008598100085981000859810008F8
:1000800059810008598100085981000859810008E8
:1000900059810008598100085981000859810008D8
:1000A00059810008598100085981000859810008C8
:1000B000357F0008598100085981000859810008DE
:1000C00059810008598100085981000859810008A8
:1000D00059810008598100088D7A00089D7A00082E
:1000E0005981000859810008598100085981000888
:1000F0005981000859810008598100085981000878
:100100005981000859810008598100085981000867
:100110005981000859810008598100085981000857
:100120005981000859810008598100085981000847
:100130005981000859810008598100085981000837
:10014000598100085981000859810008497F000839
:10015000598100085981000859810008F17A000886
:100160005981000859810008598100085981000807
:1001700059810008598100085981000800000000D9
:080180005981000859810008B3
:1001900010B5054C237833B9044B13B10448AFF3C1
:1001A00000800123237010BD10000020000000001B
:1001B000CC81000808B5034B1BB103490348AFF3DA
:1001C000008008BD0000000014000020CC81000861
:1001D00053B94AB9002908BF00281CBF4FF0FF31AE
:1001E0004FF0FF3000F072B9ADF1080C6DE904CEAC
:1001F00000F006F8DDF804E0DDE9022304B0704702
:100200002DE9F047089E04468846002B4BD18A42D0
:10021000154667D9B2FA82F24AB1C2F1200701FA53
:1002200002F320FA07F7954047EA030894404FEAA3
:10023000154E230CB8FBFEF71FFA85FC0EFB178842
:1002400043EA084307FB0CF1994209D9EB1807F17F
:10025000FF3080F01B81994240F21881023F2B440D
:100260005B1AA4B2B3FBFEF00EFB103344EA034466
:1002700000FB0CFCA44509D92C1900F1FF3380F0D8
:100280000781A44540F2048102382C4440EA07402B
:10029000A4EB0C0400271EB1D4400023C6E90043A0
:1002A0003946BDE8F0878B4209D9002E00F0EB807B
:1002B0000027C6E9000138463946BDE8F087B3FAA1
:1002C00083F7002F47D18B4202D3824200F2FA809B
:1002D000841A61EB030301209846002EE0D0C6E9A2
:1002E0000048DDE702B9FFDEB2FA82F2002A40F0F0
:1002F0008F80491B4FEA154E1FFA85F80127B1FB85
:10030000FEFC230C0EFB1C1143EA014308FB0CF11D
:10031000994207D9EB180CF1FF3002D2994200F252
:10032000CD808446591AA3B2B1FBFEF00EFB101427
:1003300043EA044408FB00F8A04507D92C1900F152
:10034000FF3302D2A04500F2B6801846A4EB0804A1
:1003500040EA0C409FE7C7F1200CBB4022FA0CFE9C
:100360004EEA030E01FA07F420FA0CF521FA0CF319
:100370004FEA1E482543B3FBF8F92C0C08FB193350
:100380001FFA8EFA44EA034309FB0AF49C4202FA7C
:1003900007F200FA07F10BD91EEB030309F1FF3056
:1003A00080F087809C4240F28480A9F10209734466
:1003B0001B1BADB2B3FBF8F008FB103345EA034456
:1003C00000FB0AFAA24508D91EEB040400F1FF3332
:1003D0006BD2A24569D90238744440EA0940A0FBB7
:1003E0000289A4EB0A044C45C2464B4654D351D073
:1003F000002E69D0B1EB0A0564EB030404FA0CFC8F
:10040000FD40FC404CEA0505C6E90054002747E7DB
:10041000C2F1200320FA03F7954001FA02F021FA15
:1004200003F34FEA154E3843010CB3FBFEF71FFAF6
:1004300085F80EFB173341EA034107FB08F38B42B3
:1004400004FA02F407D9691807F1FF3C2FD28B4256
:100450002DD9023F2944CB1A81B2B3FBFEF00EFB2B
:10046000103341EA034100FB08F38B4207D96918B6
:1004700000F1FF3C17D28B4215D902382944C91A22
:1004800040EA07473BE73746304609E70746E7E6D5
:100490001846FBE64145ABD2B8EB020A69EB0E0207
:1004A00001381346A4E76046E9E7184695E7674632
:1004B000D1E781467CE702382C4447E7ACF1020CD7
:1004C0002B442FE7384608E73746E9E6704700BF78
:1004D00080B500AF0E4B1B680D4A43F400731360E8
:1004E0000B4B1B680A4A43F480631360084B1B687C
:1004F000074A43F480731360032000F0D8F800200B
:1005000007F0A4FC07F01AFB0023184680BD00BFCB
:10051000003C024080B400AF064B1B781A46064BE5
:100520001B681344044A136000BFBD465DF8047B9A
:10053000704700BF04000020D43F002080B400AF0B
:10054000034B1B681846BD465DF8047B704700BF2F
:10055000D43F002080B485B000AF78607B6803F0A2
:100560000703FB600C4BDB68BB60BA684FF6FF0308
:100570001340BB60FB681A02BB68134343F0BF63C0
:1005800043F40033BB60044ABB68D36000BF143738
:10059000BD465DF8047B704700ED00E080B400AF1D
:1005A000044BDB681B0A03F007031846BD465DF8E1
:1005B000047B704700ED00E080B483B000AF0346D9
:1005C000FB7197F90730002B0BDBFB7903F01F025F
:1005D000074997F907305B09012000FA02F241F858
:1005E000232000BF0C37BD465DF8047B704700BF79
:1005F00000E100E080B483B000AF03463960FB71D6
:1006000097F90730002B0ADB3B68DAB20C4997F9FF
:1006100007301201D2B20B4483F800230AE03B6892
:10062000DAB20849FB7903F00F03043B1201D2B29E
:100630000B441A7600BF0C37BD465DF8047B70474B
:1006400000E100E000ED00E080B489B000AFF860A8
:10065000B9607A60FB6803F00703FB61FB69C3F1D3
:100660000703042B28BF0423BB61FB690433062B5B
:1006700002D9FB69033B00E000237B614FF0FF32AE
:10068000BB6902FA03F3DA43BB681A407B699A40FC
:100690004FF0FF317B6901FA03F3D9437B680B40CC
:1006A000134318462437BD465DF8047B704780B578
:1006B00082B000AF78607868FFF74CFF00BF083762
:1006C000BD4680BD80B586B000AF0346B9607A6094
:1006D000FB7300237B61FFF761FF78617A68B9687B
:1006E0007869FFF7B1FF024697F90F3011461846B7
:1006F000FFF780FF00BF1837BD4680BD80B582B0D0
:1007000000AF0346FB7197F907301846FFF754FF17
:1007100000BF0837BD4680BD80B483B000AF7860AD
:100720007B6893F83530DBB2022B04D07B688022E3
:100730005A6501230CE07B68052283F835207B682D
:100740001B681A687B681B6822F001021A6000238C
:1007500018460C37BD465DF8047B704780B489B0FD
:1007600000AF7860396000237B6100233B61002388
:10077000BB610023FB616BE10122FB6902FA03F319
:100780007B613B681B687A6913403B613A697B690E
:100790009A4240F05A813B685B68012B0BD03B6862
:1007A0005B68022B07D03B685B68112B03D03B686A
:1007B0005B68122B30D17B689B68BB61FB695B0077
:1007C000032202FA03F3DB43BA691340BB613B68BF
:1007D000DA68FB695B0002FA03F3BA691343BB6191
:1007E0007B68BA699A607B685B68BB610122FB69C0
:1007F00002FA03F3DB43BA691340BB613B685B68F1
:100800001B0903F00102FB6902FA03F3BA691343FF
:10081000BB617B68BA695A607B68DB68BB61FB6956
:100820005B00032202FA03F3DB43BA691340BB61A6
:100830003B689A68FB695B0002FA03F3BA691343E9
:10084000BB617B68BA69DA603B685B68022B03D0E6
:100850003B685B68122B23D1FB69DA087B6808329E
:1008600053F82230BB61FB6903F007039B000F22A2
:1008700002FA03F3DB43BA691340BB613B681A69B0
:10088000FB6903F007039B0002FA03F3BA69134301
:10089000BB61FB69DA087B680832B96943F822104A
:1008A0007B681B68BB61FB695B00032202FA03F3F0
:1008B000DB43BA691340BB613B685B6803F003022A
:1008C000FB695B0002FA03F3BA691343BB617B68FF
:1008D000BA691A603B685B6803F08053002B00F034
:1008E000B4800023FB605F4B5B6C5E4A43F4804343
:1008F00053645C4B5B6C03F48043FB60FB685A4AB7
:10090000FB699B08023352F82330BB61FB6903F09B
:1009100003039B000F2202FA03F3DB43BA6913407F
:10092000BB617B68514A93422BD07B68504A93420B
:1009300025D07B684F4A93421FD07B684E4A934232
:1009400019D07B684D4A934213D07B684C4A93423E
:100950000DD07B684B4A934207D07B684A4A93424A
:1009600001D107230EE008230CE006230AE005234B
:1009700008E0042306E0032304E0022302E001234D
:1009800000E00023FA6902F0030292009340BA6982
:100990001343BB613449FB699B080233BA6941F8D0
:1009A00023203A4B1B68BB613B69DB43BA691340A8
:1009B000BB613B685B6803F48033002B03D0BA69EA
:1009C0003B691343BB61314ABB6913602F4B5B68C2
:1009D000BB613B69DB43BA691340BB613B685B6841
:1009E00003F40033002B03D0BA693B691343BB61A6
:1009F000264ABB695360254B9B68BB613B69DB435F
:100A0000BA691340BB613B685B6803F48013002B39
:100A100003D0BA693B691343BB611C4ABB6993604D
:100A20001A4BDB68BB613B69DB43BA691340BB61AE
:100A30003B685B6803F40013002B03D0BA693B6981
:100A40001343BB61114ABB69D360FB690133FB618E
:100A5000FB690F2B7FF690AE00BF2437BD465DF8D3
:100A6000047B70470038024000380140000002401B
:100A70000004024000080240000C02400010024046
:100A80000014024000180240001C0240003C0140DB
:100A900080B483B000AF78600B467B8013467B70D8
:100AA0007B78002B03D07A887B689A6103E07B888F
:100AB0001A047B689A6100BF0C37BD465DF8047B61
:100AC000704780B483B000AF78600B467B807B6852
:100AD0005A697B881A407B889A4204D17B881A0421
:100AE0007B689A6102E07A887B689A6100BF0C3764
:100AF000BD465DF8047B704780B586B000AF786076
:100B00007B681B683B613B69FB607B681B68184620
:100B100003F0DEF90346012B40F0EF807B681B6891
:100B2000184603F0C2F90346002B00F0E5807B680D
:100B30001B68184603F0B9F9034603F40013B3F534
:100B4000001F04D17B681B684FF400125A617B6858
:100B50001B68184603F0A9F9034603F48013B3F5A4
:100B6000801F04D17B681B684FF480125A617B6838
:100B70001B68184603F099F9034603F08063B3F14C
:100B8000806F04D17B681B684FF080625A617B687C
:100B90001B68184603F089F9034603F00203022B91
:100BA00003D17B681B6802225A617B681B68184668
:100BB00003F07BF9034603F00053B3F1005F15D156
:100BC0007B681B684FF000525A61FB6803F588632D
:100BD0001B6803F00103002B08D1786807F010FAB6
:100BE0007B681B680121184603F080F97B681B684D
:100BF000184603F05AF9034603F08073B3F1807F7F
:100C000002D1786801F0F0F87B681B68184603F0A1
:100C10004CF9034603F00803082B06D1786807F067
:100C2000D3F97B681B6808225A617B681B681846E9
:100C300003F03BF9034603F00073B3F1007F38D1B2
:100C40007B681B68184603F08BF9B86000237B6152
:100C500025E07B6903F00F03BA6822FA03F303F07F
:100C60000103002B18D07B695A01FB68134403F57C
:100C7000A0631B6803F40043B3F5004F06D17B6902
:100C8000DBB21946786800F058F805E07B69DBB202
:100C90001946786800F086FC7B6901337B617B68CC
:100CA0009B687A699A42D4D37B681B684FF00072C4
:100CB0005A617B681B68184603F0F7F8034603F097
:100CC0001003102B01D1012300E00023002B14D0CE
:100CD0007B681B689A697B681B6822F010029A6126
:100CE000786800F0D5FF7B681B689A697B681B6891
:100CF00042F010029A6100E000BF1837BD4680BD87
:100D000080B582B000AF78607B6893F8B832012B71
:100D100001D102230DE07B68012283F8B8227B68B1
:100D20001B68184603F02CFA7B68002283F8B8226F
:100D3000002318460837BD4680BD80B586B000AF99
:100D400078600B46FB707B681B687B617B693B614D
:100D5000FB78FB60FB685A013B69134403F5A06311
:100D60009B6803F00403042B19D1FB685A013B690B
:100D7000134403F5A0631A4604239360FB685A01E9
:100D80003B69134403F5A063DB68FA6851013A69D3
:100D90000A4402F5A06243F00203D360CEE0FB6890
:100DA0005A013B69134403F5A0639B6803F4807305
:100DB000B3F5807F2CD1FB685A013B69134403F5DE
:100DC000A0631A464FF4807393607968FA681346FB
:100DD0009B001344DB000B445D3307221A70FB6851
:100DE0005A013B69134403F5A063DB68FA685101BB
:100DF0003A690A4402F5A06243F00203D3607B68BB
:100E00001B68FA68D2B21146184603F0BAF895E0AA
:100E1000FB685A013B69134403F5A0639B6803F028
:100E20002003202B09D1FB685A013B69134403F5C9
:100E3000A0631A462023936080E0FB685A013B6957
:100E4000134403F5A0639B6803F00803082B34D117
:100E5000FB685A013B69134403F5A063DB68FA6839
:100E600051013A690A4402F5A06243F00203D360DB
:100E70007968FA6813469B001344DB000B445D332A
:100E800005221A70FB685A013B69134403F5A063FD
:100E90001A4610239360FB685A013B69134403F51B
:100EA000A0631A46082393607B681B68FA68D2B275
:100EB0001146184603F065F840E0FB685A013B69AB
:100EC000134403F5A0639B6803F48063B3F5806F5C
:100ED00034D1FB685A013B69134403F5A063DB6816
:100EE000FA6851013A690A4402F5A06243F002032C
:100EF000D3607B681B68FA68D2B21146184603F0CB
:100F000040F8FB685A013B69134403F5A0631A4695
:100F1000102393607968FA6813469B001344DB0042
:100F20000B445D3308221A70FB685A013B69134475
:100F300003F5A0631A464FF480639360FB685A017F
:100F40003B69134403F5A0639B6803F40073B3F596
:100F5000007F22D1FB685A013B69134403F5A0636B
:100F6000DB68FA6851013A690A4402F5A06243F06D
:100F70000203D3607B681B68FA68D2B21146184638
:100F800002F0FFFFFB685A013B69134403F5A063BD
:100F90001A464FF40073936000E3FB685A013B6903
:100FA000134403F5A0639B6803F00103012B40F099
:100FB000FD807B681B69002B1BD07968FA6813469B
:100FC0009B001344DB000B4448331A68FB6859014B
:100FD0003B690B4403F5A0631B69C3F31203D11AE9
:100FE0007868FA6813469B001344DB0003444C33D3
:100FF00019607968FA6813469B001344DB000B44C0
:101000005D3301221A707968FA6813469B00134415
:10101000DB000B44583300221A60FB685A013B691D
:10102000134403F5A0631A46012393607968FA68B4
:1010300013469B001344DB000B443F331B78002B0B
:101040000AD07968FA6813469B001344DB000B440E
:101050003F331B78022B21D1FB685A013B691344B3
:1010600003F5A063DB68FA6851013A690A4402F5A6
:10107000A06243F00203D3607B681B68FA68D2B2B7
:101080001146184602F07DFFFB685A013B69134484
:1010900003F5A0631A461023936070E07968FA683C
:1010A00013469B001344DB000B443F331B78032B98
:1010B0002AD1FB685A013B69134403F5A0631B68FE
:1010C000FA6851013A690A4402F5A06243F00053FC
:1010D00013607968FA6813469B001344DB000B44E5
:1010E0005C3301221A70FB68D8B27968FA6813463B
:1010F0009B001344DB000B445C331B781A4601460B
:10110000786806F08BFF3AE07968FA6813469B002E
:101110001344DB000B443F331B78012B2FD179683C
:10112000FA6813469B001344DB000B445C33012236
:101130001A707968FA6813469B001344DB000B446D
:1011400050331B7883F00103D8B27968FA681346EC
:101150009B001344DB000B44503302461A70FB68BB
:10116000D8B27968FA6813469B001344DB000B443D
:101170005C331B781A460146786806F04FFF7968A1
:10118000FA6813469B001344DB000B4450331B7872
:1011900083F00103D8B27968FA6813469B001344C0
:1011A000DB000B44503302461A70F7E1FB685A012A
:1011B0003B69134403F5A0639B6803F00203022B11
:1011C00040F01A81FB685A013B69134403F5A063A0
:1011D000DB68FA6851013A690A4402F5A06223F01B
:1011E0000203D3607968FA6813469B001344DB005E
:1011F0000B445D331B78012B0AD17968FA681346DA
:101200009B001344DB000B445C3301221A70D9E0CD
:101210007968FA6813469B001344DB000B445D3386
:101220001B78052B0AD17968FA6813469B00134492
:10123000DB000B445C3305221A70C3E07968FA685E
:1012400013469B001344DB000B445D331B78062BD5
:101250000AD07968FA6813469B001344DB000B44FC
:101260005D331B78082B56D17968FA6813469B00CA
:101270001344DB000B4458331B68591C7868FA6828
:1012800013469B001344DB0003445833196079680C
:10129000FA6813469B001344DB000B4458331B6869
:1012A000032B14D97968FA6813469B001344DB00BA
:1012B0000B44583300221A607968FA6813469B0081
:1012C0001344DB000B445C3304221A7009E0796894
:1012D000FA6813469B001344DB000B445C33022284
:1012E0001A70FB685A013B69134403F5A0631B683D
:1012F000BB60BB6823F08043BB60BB6843F0004326
:10130000BB60FB685A013B69134403F5A0631A46AE
:10131000BB68136056E07968FA6813469B00134473
:10132000DB000B445D331B78032B23D17968FA680B
:1013300013469B001344DB000B445C3302221A70FB
:10134000FB685A013B69134403F5A0631B68BB604B
:10135000BB6823F08043BB60BB6843F00043BB60C5
:10136000FB685A013B69134403F5A0631A46BB6846
:10137000136027E07968FA6813469B001344DB008A
:101380000B445D331B78072B1CD17968FA68134630
:101390009B001344DB000B4458331B68591C7868CE
:1013A000FA6813469B001344DB000344583319606A
:1013B0007968FA6813469B001344DB000B445C33E6
:1013C00004221A70FB685A013B69134403F5A063B9
:1013D0001A4602239360FB68D8B27968FA6813460C
:1013E0009B001344DB000B445C331B781A46014618
:1013F000786806F013FED1E0FB685A013B6913449C
:1014000003F5A0639B6803F08003802B3ED1FB684B
:101410005A013B69134403F5A063DB68FA68510184
:101420003A690A4402F5A06243F00203D360796886
:10143000FA6813469B001344DB000B4458331B68C7
:10144000591C7868FA6813469B001344DB00034478
:10145000583319607968FA6813469B001344DB001F
:101460000B445D3306221A707B681B68FA68D2B29F
:101470001146184602F085FDFB685A013B6913448A
:1014800003F5A0631A468023936087E0FB685A0146
:101490003B69134403F5A0639B6803F01003102B12
:1014A0007CD17968FA6813469B001344DB000B4437
:1014B0003F331B78032B22D17968FA6813469B00CF
:1014C0001344DB000B44583300221A60FB685A01B6
:1014D0003B69134403F5A063DB68FA6851013A697C
:1014E0000A4402F5A06243F00203D3607B681B68E4
:1014F000FA68D2B21146184602F043FD45E0796819
:10150000FA6813469B001344DB000B443F331B78FF
:10151000002B0AD07968FA6813469B001344DB005D
:101520000B443F331B78022B2FD17968FA6813469E
:101530009B001344DB000B44583300221A607B6885
:101540001B69002B21D17968FA6813469B0013446C
:10155000DB000B445D3303221A70FB685A013B69C0
:10156000134403F5A063DB68FA6851013A690A4441
:1015700002F5A06243F00203D3607B681B68FA683F
:10158000D2B21146184602F0FCFCFB685A013B69D6
:10159000134403F5A0631A461023936000BF183765
:1015A000BD4680BD80B586B000AF78600B46FB704D
:1015B0007B681B687B617B693B61FB78FB60FB6838
:1015C0005A013B69134403F5A0639B6803F00403CD
:1015D000042B19D1FB685A013B69134403F5A0633E
:1015E0001A4604239360FB685A013B69134403F5D0
:1015F000A063DB68FA6851013A690A4402F5A06207
:1016000043F00203D3603EE3FB685A013B69134495
:1016100003F5A0639B6803F02003202B41D1FB68F6
:101620005A013B69134403F5A0631A4620239360D3
:101630007968FA6813469B001344DB000B443D3382
:101640001B78012B40F01F837968FA6813469B00D2
:101650001344DB000B443D3300221A707968FA68AA
:1016600013469B001344DB000B445C3302221A70C8
:10167000FB685A013B69134403F5A063DB68FA6811
:1016800051013A690A4402F5A06243F00203D360B3
:101690007B681B68FA68D2B21146184602F071FCEA
:1016A000F1E2FB685A013B69134403F5A0639B68B0
:1016B00003F04003402B3FD17968FA6813469B0042
:1016C0001344DB000B445D3304221A707968FA6816
:1016D00013469B001344DB000B443D3301221A7078
:1016E0007968FA6813469B001344DB000B445833B7
:1016F00000221A60FB685A013B69134403F5A0639A
:10170000DB68FA6851013A690A4402F5A06243F0C5
:101710000203D3607B681B68FA68D2B21146184690
:1017200002F02FFCFB685A013B69134403F5A063E8
:101730001A4640239360A6E2FB685A013B691344B2
:1017400003F5A0639B6803F40073B3F5007F22D117
:10175000FB685A013B69134403F5A063DB68FA6830
:1017600051013A690A4402F5A06243F00203D360D2
:101770007B681B68FA68D2B21146184602F001FC79
:10178000FB685A013B69134403F5A0631A464FF402
:101790000073936077E2FB685A013B69134403F5D9
:1017A000A0639B6803F00103012B35D17968FA68C7
:1017B00013469B001344DB000B44583300221A608D
:1017C000FB685A013B69134403F5A063DB68FA68C0
:1017D00051013A690A4402F5A06243F00203D36062
:1017E0007B681B68FA68D2B21146184602F0C9FB42
:1017F000FB685A013B69134403F5A0631A460123B1
:1018000093607968FA6813469B001344DB000B442D
:101810005D3301221A7036E2FB685A013B691344BA
:1018200003F5A0639B6803F00803082B2BD1FB682A
:101830005A013B69134403F5A0631A4608239360D9
:10184000FB685A013B69134403F5A063DB68FA683F
:1018500051013A690A4402F5A06243F00203D360E1
:101860007B681B68FA68D2B21146184602F089FB01
:101870007968FA6813469B001344DB000B445D3320
:1018800005221A70FFE1FB685A013B69134403F516
:10189000A0639B6803F01003102B55D17968FA6898
:1018A00013469B001344DB000B44583300221A609C
:1018B0007968FA6813469B001344DB000B445D33E0
:1018C00003221A707968FA6813469B001344DB0000
:1018D0000B443D331B78002B14D17968FA6813460A
:1018E0009B001344DB000B443C331B78002B09D1D5
:1018F0007968FA6813469B001344DB000B443D33C0
:1019000001221A70FB685A013B69134403F5A06376
:10191000DB68FA6851013A690A4402F5A06243F0B3
:101920000203D3607B681B68FA68D2B2114618467E
:1019300002F027FBFB685A013B69134403F5A063DF
:101940001A46102393609EE1FB685A013B691344D9
:1019500003F5A0639B6803F08003802B2BD1FB6809
:101960005A013B69134403F5A063DB68FA6851012F
:101970003A690A4402F5A06243F00203D3607B682F
:101980001B68FA68D2B21146184602F0FAFA796872
:10199000FA6813469B001344DB000B445D330622B8
:1019A0001A70FB685A013B69134403F5A0631A4699
:1019B0008023936067E1FB685A013B69134403F598
:1019C000A0639B6803F48063B3F5806F35D1FB6837
:1019D0005A013B69134403F5A063DB68FA685101BF
:1019E0003A690A4402F5A06243F00203D3607B68BF
:1019F0001B68FA68D2B21146184602F0C2FAFB68B8
:101A00005A013B69134403F5A0631A4610239360FF
:101A1000FB685A013B69134403F5A0631A464FF46F
:101A2000806393607968FA6813469B001344DB0077
:101A30000B445D3308221A7025E1FB685A013B69AB
:101A4000134403F5A0639B6803F00203022B40F0EC
:101A50001A81FB685A013B69134403F5A063DB68F4
:101A6000FA6851013A690A4402F5A06223F00203C0
:101A7000D3607968FA6813469B001344DB000B447B
:101A80005D331B78012B37D17968FA6813469B00C8
:101A90001344DB000B445C3301221A707968FA6846
:101AA00013469B001344DB000B443F331B78022B8F
:101AB0000BD07968FA6813469B001344DB000B4493
:101AC0003F331B78032B40F0C5807968FA681346D2
:101AD0009B001344DB000B4451331B7883F001035C
:101AE000D8B27968FA6813469B001344DB000B44B4
:101AF000513302461A70ADE07968FA6813469B00CC
:101B00001344DB000B445D331B78032B0AD1796847
:101B1000FA6813469B001344DB000B445C3302223B
:101B20001A7097E07968FA6813469B001344DB004B
:101B30000B445D331B78042B0AD17968FA6813468D
:101B40009B001344DB000B445C3302221A7081E0DB
:101B50007968FA6813469B001344DB000B445D333D
:101B60001B78052B0AD17968FA6813469B00134449
:101B7000DB000B445C3305221A706BE07968FA686D
:101B800013469B001344DB000B445D331B78062B8C
:101B90000AD07968FA6813469B001344DB000B44B3
:101BA0005D331B78082B55D17968FA6813469B0082
:101BB0001344DB000B4458331B68591C7868FA68DF
:101BC00013469B001344DB000344583319607968C3
:101BD000FA6813469B001344DB000B4458331B6820
:101BE000032B14D97968FA6813469B001344DB0071
:101BF0000B44583300221A607968FA6813469B0038
:101C00001344DB000B445C3304221A7009E079684A
:101C1000FA6813469B001344DB000B445C3302223A
:101C20001A70FB685A013B69134403F5A0631B68F3
:101C3000BB60BB6823F08043BB60BB6843F00043DC
:101C4000BB60FB685A013B69134403F5A0631A4665
:101C5000BB681360FB685A013B69134403F5A0633A
:101C60001A4602239360FB68D8B27968FA68134673
:101C70009B001344DB000B445C331B781A4601467F
:101C8000786806F0CBF900BF1837BD4680BD00006C
:101C900080B58AB000AF78607B681B687B627B6A26
:101CA0003B627B681B681B6AFB61FB6903F00F03E7
:101CB000BB61FB695B0C03F00F037B61FB691B09D4
:101CC000C3F30A033B617B69022B03D0052B00F0B1
:101CD000828083E03B69002B7FD07968BA69134624
:101CE0009B001344DB000B4444331B68002B74D06F
:101CF0007B6818687968BA6913469B001344DB0057
:101D00000B4444331B683A6992B2194602F0A4F8B6
:101D10007968BA6913469B001344DB000B444433D3
:101D20001A683B69D1187868BA6913469B00134456
:101D3000DB000344443319607968BA6913469B0099
:101D40001344DB000B444C331A683B69D1187868A4
:101D5000BA6913469B001344DB0003444C331960FB
:101D6000BB695A013B6A134403F5A0631A691D4B12
:101D70001340002B31D0BB695A013B6A134403F571
:101D8000A0631B68FB60FB6823F08043FB60FB687B
:101D900043F00043FB60BB695A013B6A134403F5FF
:101DA000A0631A46FB6813607968BA6913469B0002
:101DB0001344DB000B4450331B7883F00103D8B28B
:101DC0007968BA6913469B001344DB000B44503317
:101DD00002461A7001E000BF00E000BF00BF2837D4
:101DE000BD4680BD0000F81F80B586B000AF7860AA
:101DF0007B681B687B617B693B613B6903F588639A
:101E00001B68FB603B6903F588631B68BB60BB68AC
:101E100023F02E03BB60FB6803F00203022B0BD1FF
:101E2000FB6803F00103012B02D1786806F0DAF8B1
:101E3000BB6843F00203BB60FB6803F00803082B98
:101E400032D1BB6843F00803BB60FB6803F00403B6
:101E5000042B26D17B689B69022B13D1FB6803F40A
:101E6000C023B3F5802F06D17B681B68022118467A
:101E700002F03CF811E07B681B680121184602F073
:101E800035F80AE07B68DB68012B06D13B6903F576
:101E900080631A464EF660235360786806F0D0F8E7
:101EA00002E0786806F0DAF8FB6803F02003202BE4
:101EB00003D1BB6843F02003BB603B6903F5886333
:101EC0001A46BB68136000BF1837BD4680BD0000CE
:101ED00080B584B000AF78607B68002B01D101230E
:101EE0001FE17B6893F83D30DBB2002B06D17B68A5
:101EF000002283F83C20786805F04CFE7B682422A1
:101F000083F83D207B681B681A687B681B6822F099
:101F100001021A607B681B681A687B681B6842F4C0
:101F200000421A607B681B681A687B681B6822F491
:101F300000421A6000F03EFDF8607B685B687B4AF7
:101F4000934207D8FB687A4A934294BF0123002347
:101F5000DBB206E0FB68774A934294BF012300237B
:101F6000DBB2002B01D00123DBE0FB68724AA2FB4D
:101F700003239B0CBB607B681B685B6823F03F01FD
:101F80007B681B68BA680A435A607B681B681B6AD7
:101F900023F03F017B685B68644A934202D8BB68C8
:101FA000013309E0BB684FF4967202FB03F3634A06
:101FB000A2FB03239B0901337A6812680B43136267
:101FC0007B681B68DB6923F44F4222F0FF027B68C9
:101FD0005B6856498B420DD8FB68591E7B685B686D
:101FE0005B00B1FBF3F30133C3F30B03042B38BFE6
:101FF00004234FE07B689B68002B11D1FB68581EBF
:102000007B6859680B465B000B44B0FBF3F301336C
:10201000C3F30B03002B0CBF01230023DBB212E040
:10202000FB68581E7B6859680B469B000B4499005F
:102030000B44B0FBF3F30133C3F30B03002B0CBFD2
:1020400001230023DBB2002B01D0012322E07B68B7
:102050009B68002B0ED1FB68581E7B6859680B46A5
:102060005B000B44B0FBF3F30133C3F30B0343F406
:1020700000430FE0FB68581E7B6859680B469B00C5
:102080000B4499000B44B0FBF3F30133C3F30B0390
:1020900043F44043796809681343CB617B681B684C
:1020A0001B6823F0C0017B68DA697B681B6A1A43EE
:1020B0007B681B680A431A607B681B689B6823F473
:1020C000034323F0FF037A6811697A68D2681143E9
:1020D0007A6812680B4393607B681B68DB6823F0A7
:1020E000FF017B685A697B689B691A437B681B68A0
:1020F0000A43DA607B681B681A687B681B6842F0D9
:1021000001021A607B6800221A647B68202283F82F
:102110003D207B6800221A637B68002283F83E2002
:10212000002318461037BD4680BD00BFA0860100C1
:102130007F841E00FF083D0083DE1B43D34D6210E9
:1021400080B586B000AF78607B68002B01D1012399
:102150005BE27B681B6803F00103002B75D0A34B87
:102160009B6803F00C03042B0CD0A04B9B6803F07E
:102170000C03082B12D19D4B5B6803F48003B3F56D
:10218000800F0BD1994B1B6803F40033002B5BD0FD
:102190007B685B68002B57D1012336E27B685B6864
:1021A000B3F5803F06D1914B1B68904A43F48033CE
:1021B00013601DE07B685B68B3F5A02F0CD18B4BDF
:1021C0001B688A4A43F480231360884B1B68874A44
:1021D00043F4803313600BE0844B1B68834A23F481
:1021E00080331360814B1B68804A23F48023136083
:1021F0007B685B68002B13D0FEF7A0F9386108E01C
:10220000FEF79CF902463B69D31A642B01D90323DC
:10221000FBE1764B1B6803F40033002BF0D014E095
:10222000FEF78CF9386108E0FEF788F902463B6951
:10223000D31A642B01D90323E7E16C4B1B6803F429
:102240000033002BF0D100E000BF7B681B6803F077
:102250000203002B63D0654B9B6803F00C03002B3B
:102260000BD0624B9B6803F00C03082B1CD15F4B17
:102270005B6803F48003002B16D15C4B1B6803F0F2
:102280000203002B05D07B68DB68012B01D0012302
:10229000BBE1564B1B6823F0F8027B681B69DB002F
:1022A000524913430B603AE07B68DB68002B20D077
:1022B0004F4B01221A60FEF741F9386108E0FEF742
:1022C0003DF902463B69D31A022B01D903239CE155
:1022D000464B1B6803F00203002BF0D0434B1B68F6
:1022E00023F0F8027B681B69DB00404913430B6055
:1022F00015E03F4B00221A60FEF720F9386108E034
:10230000FEF71CF902463B69D31A022B01D90323BD
:102310007BE1364B1B6803F00203002BF0D17B6896
:102320001B6803F00803002B30D07B685B69002B2F
:1023300016D0304B01221A60FEF700F9386108E030
:10234000FEF7FCF802463B69D31A022B01D903239E
:102350005BE1264B5B6F03F00203002BF0D015E02E
:10236000244B00221A60FEF7E9F8386108E0FEF716
:10237000E5F802463B69D31A022B01D9032344E155
:102380001A4B5B6F03F00203002BF0D17B681B68D4
:1023900003F00403002B00F0A0800023FB75134B17
:1023A0001B6C03F08053002B0FD10023BB600F4B3D
:1023B0001B6C0E4A43F0805313640C4B1B6C03F0F0
:1023C0008053BB60BB680123FB750B4B1B6803F498
:1023D0008073002B21D1084B1B68074A43F480739C
:1023E0001360FEF7ABF8386111E000BF003802401F
:1023F00000004742800E474200700040FEF79EF802
:1024000002463B69D31A022B01D90323FDE0814B1D
:102410001B6803F48073002BF0D07B689B68012B52
:1024200006D17D4B1B6F7C4A43F0010313671CE010
:102430007B689B68052B0CD1774B1B6F764A43F06A
:1024400004031367744B1B6F734A43F00103136754
:102450000BE0714B1B6F704A23F0010313676E4B47
:102460001B6F6D4A23F0040313677B689B68002B86
:1024700015D0FEF763F838610AE0FEF75FF8024610
:102480003B69D31A41F28832934201D90323BCE05D
:10249000614B1B6F03F00203002BEED014E0FEF73C
:1024A0004DF838610AE0FEF749F802463B69D31A55
:1024B00041F28832934201D90323A6E0564B1B6FA9
:1024C00003F00203002BEED1FB7D012B05D1524B13
:1024D0001B6C514A23F0805313647B689B69002B6B
:1024E00000F092804C4B9B6803F00C03082B5CD0EF
:1024F0007B689B69022B41D1484B00221A60FEF792
:102500001DF8386108E0FEF719F802463B69D31A56
:10251000022B01D9032378E03F4B1B6803F00073C3
:10252000002BF0D17B68DA697B681B6A1A437B68F1
:102530005B6A9B011A437B689B6A5B08013B1B0437
:102540001A437B68DB6A1B06334913434B60334BEA
:1025500001221A60FDF7F2FF386108E0FDF7EEFF97
:1025600002463B69D31A022B01D903234DE02A4BC3
:102570001B6803F00073002BF0D045E0274B0022CE
:102580001A60FDF7DBFF386108E0FDF7D7FF024670
:102590003B69D31A022B01D9032336E01E4B1B687B
:1025A00003F00073002BF0D12EE07B689B69012BB8
:1025B00001D1012329E0184B5B68FB60FB6803F441
:1025C00080027B68DB699A421CD1FB6803F03F0202
:1025D0007B681B6A9A4215D1FA6847F6C0731340AC
:1025E0007A68526A93420DD1FB6803F440327B68EB
:1025F0009B6A9A4206D1FB6803F070627B68DB6AD3
:102600009A4201D0012300E0002318461837BD4646
:1026100080BD00BF007000400038024060004742AB
:1026200080B584B000AF786039607B68002B01D141
:102630000123CCE0684B1B6803F00F033A689A4211
:102640000CD9654B3A68D2B21A70634B1B6803F021
:102650000F033A689A4201D00123B8E07B681B68F7
:1026600003F00203002B20D07B681B6803F00403F7
:10267000002B05D0594B9B68584A43F4E0539360B4
:102680007B681B6803F00803002B05D0534B9B6845
:10269000524A43F460439360504B9B6823F0F0022E
:1026A0007B689B684D4913438B607B681B6803F014
:1026B0000103002B44D07B685B68012B07D1474B9B
:1026C0001B6803F40033002B19D101237FE07B68E2
:1026D0005B68022B03D07B685B68032B07D13F4B01
:1026E0001B6803F00073002B09D101236FE03B4B03
:1026F0001B6803F00203002B01D1012367E0374B75
:102700009B6823F003027B685B68344913438B604A
:10271000FDF714FFF8600AE0FDF710FF0246FB68C2
:10272000D31A41F28832934201D903234FE02B4B55
:102730009B6803F00C027B685B689B009A42EBD1BC
:10274000254B1B6803F00F033A689A420CD2224BC8
:102750003A68D2B21A70204B1B6803F00F033A6834
:102760009A4201D0012332E07B681B6803F0040326
:10277000002B08D0194B9B6823F4E0527B68DB6880
:10278000164913438B607B681B6803F00803002B1A
:1027900009D0124B9B6823F460427B681B69DB0005
:1027A0000E4913438B6000F021F801460B4B9B68E8
:1027B0001B0903F00F030A4AD35C21FA03F3094A09
:1027C0001360094B1B68184605F040FB00231846B0
:1027D0001037BD4680BD00BF003C024000380240BB
:1027E000908300080C00002000000020F0B585B0A8
:1027F00000AF00237B600023FB6000233B600023CD
:10280000BB60634B9B6803F00C03042B07D0082BC1
:1028100008D0002B40F0B4805E4BBB60B3E05E4B51
:10282000BB60B0E05A4B5B6803F03F037B60584BE2
:102830005B6803F48003002B4AD0554B5B689B090F
:102840004FF0000440F2FF114FF0000203EA0105CF
:1028500004EA0206294632464FF000034FF0000416
:10286000540144EAD1644B0119462246491B62EBEC
:1028700006024FF000034FF00004940144EA916413
:102880008B015B1A64EB02044FF000014FF0000271
:10289000E20042EA5372D9000B4614465B1944EB3E
:1028A00006044FF000014FF00002620242EAD352E8
:1028B00059020B461446184621467B684FF0000427
:1028C0001A462346FDF784FC03460C46FB6049E0AC
:1028D0002F4B5B689B094FF0000440F2FF114FF053
:1028E000000203EA010504EA0206294632464FF0D7
:1028F00000034FF00004540144EAD1644B0119462F
:102900002246491B62EB06024FF000034FF0000421
:10291000940144EA91648B015B1A64EB02044FF06A
:1029200000014FF00002E20042EA5372D9000B4668
:1029300014465B1944EB06044FF000014FF000020F
:10294000A20242EA935299020B46144618462146C7
:102950007B684FF000041A462346FDF739FC034616
:102960000C46FB600A4B5B681B0C03F0030301334E
:102970005B003B60FA683B68B2FBF3F3BB6002E0CC
:10298000044BBB6000BFBB6818461437BD46F0BDA2
:10299000003802400024F40000127A0080B400AF36
:1029A000034B1B681846BD465DF8047B704700BFAB
:1029B0000C00002080B500AFFFF7F0FF0146054B8B
:1029C0009B689B0A03F00703034AD35C21FA03F3D5
:1029D000184680BD00380240A083000880B500AFD3
:1029E000FFF7DCFF0146054B9B685B0B03F0070319
:1029F000034AD35C21FA03F3184680BD0038024035
:102A0000A083000880B483B000AF786039607B6831
:102A10000F221A60124B9B6803F003027B685A6016
:102A20000F4B9B6803F0F0027B689A600C4B9B682D
:102A300003F4E0527B68DA60094B9B68DB0803F41F
:102A4000E0527B681A61074B1B6803F00F023B687A
:102A50001A6000BF0C37BD465DF8047B704700BFAD
:102A600000380240003C024080B582B000AF786080
:102A70007B68002B01D1012356E07B6800229A621B
:102A80007B6893F85130DBB2002B06D17B680022C3
:102A900083F85020786805F0C5F87B68022283F837
:102AA00051207B681B681A687B681B6822F0400213
:102AB0001A607B685A687B689B681A437B68DB688E
:102AC0001A437B681B691A437B685B691A437B68FE
:102AD0009B6903F400731A437B68DB691A437B68C4
:102AE0001B6A42EA03017B689A6A7B681B680A4397
:102AF0001A607B689B691B0C03F004017B685A6AAF
:102B00007B681B680A435A607B681B68DA697B68CC
:102B10001B6822F40062DA617B6800225A657B68D8
:102B2000012283F85120002318460837BD4680BD96
:102B300080B582B000AF78607B68002B01D10123A3
:102B40001DE07B6893F83D30DBB2002B06D17B683B
:102B5000002283F83C20786800F015F87B68022298
:102B600083F83D207B681A687B6804331946104659
:102B700000F068F97B68012283F83D2000231846A5
:102B80000837BD4680BD80B483B000AF786000BF19
:102B90000C37BD465DF8047B704780B485B000AF4C
:102BA00078607B681B68DA687B681B6842F001020A
:102BB000DA607B681B689B6803F00703FB60FB68B7
:102BC000062B07D07B681B681A687B681B6842F07D
:102BD00001021A60002318461437BD465DF8047BD5
:102BE000704780B582B000AF78607B681B681B6956
:102BF00003F00203022B22D17B681B68DB6803F021
:102C00000203022B1BD17B681B686FF002021A6162
:102C10007B6801221A777B681B689B6903F00303BA
:102C2000002B03D0786800F0EEF805E0786800F03B
:102C3000E0F8786800F0F1F87B6800221A777B688A
:102C40001B681B6903F00403042B22D17B681B68FB
:102C5000DB6803F00403042B1BD17B681B686FF057
:102C600004021A617B6802221A777B681B689B69E1
:102C700003F44073002B03D0786800F0C4F805E03B
:102C8000786800F0B6F8786800F0C7F87B68002232
:102C90001A777B681B681B6903F00803082B22D195
:102CA0007B681B68DB6803F00803082B1BD17B687B
:102CB0001B686FF008021A617B6804221A777B6830
:102CC0001B68DB6903F00303002B03D0786800F076
:102CD0009AF805E0786800F08CF8786800F09DF8C4
:102CE0007B6800221A777B681B681B6903F010035E
:102CF000102B22D17B681B68DB6803F01003102BBC
:102D00001BD17B681B686FF010021A617B68082278
:102D10001A777B681B68DB6903F44073002B03D0D0
:102D2000786800F070F805E0786800F062F878687C
:102D300000F073F87B6800221A777B681B681B69B8
:102D400003F00103012B0ED17B681B68DB6803F0E5
:102D50000103012B07D17B681B686FF001021A6128
:102D6000786804F0DDF97B681B681B6903F0800359
:102D7000802B0ED17B681B68DB6803F08003802BFF
:102D800007D17B681B686FF080021A61786800F0D9
:102D900003F97B681B681B6903F04003402B0ED1CD
:102DA0007B681B68DB6803F04003402B07D17B681E
:102DB0001B686FF040021A61786800F038F87B6891
:102DC0001B681B6903F02003202B0ED17B681B6856
:102DD000DB6803F02003202B07D17B681B686FF0B2
:102DE00020021A61786800F0CDF800BF0837BD46B0
:102DF00080BD80B483B000AF786000BF0C37BD46A3
:102E00005DF8047B704780B483B000AF786000BF8A
:102E10000C37BD465DF8047B704780B483B000AFCB
:102E2000786000BF0C37BD465DF8047B704780B406
:102E300083B000AF786000BF0C37BD465DF8047BFF
:102E40007047000080B485B000AF786039607B685F
:102E50001B68FB607B68404A934213D07B68B3F1E8
:102E6000804F0FD07B683D4A93420BD07B683C4A31
:102E7000934207D07B683B4A934203D07B683A4A2F
:102E8000934208D1FB6823F07003FB603B685B68EA
:102E9000FA681343FB607B682F4A93422BD07B6810
:102EA000B3F1804F27D07B682C4A934223D07B68B4
:102EB0002B4A93421FD07B682A4A93421BD07B68DF
:102EC000294A934217D07B68284A934213D07B68E3
:102ED000274A93420FD07B68264A93420BD07B68E7
:102EE000254A934207D07B68244A934203D07B68EB
:102EF000234A934208D1FB6823F44073FB603B688C
:102F0000DB68FA681343FB60FB6823F080023B68D0
:102F10005B691343FB607B68FA681A603B689A68D8
:102F20007B68DA623B681A687B689A627B680A4A47
:102F3000934203D07B680C4A934203D13B681A69E1
:102F40007B681A637B6801225A6100BF1437BD4653
:102F50005DF8047B704700BF0000014000040040A2
:102F600000080040000C0040000401400040014007
:102F7000004401400048014000180040001C00408F
:102F80000020004080B483B000AF786000BF0C37F1
:102F9000BD465DF8047B704780B483B000AF7860B5
:102FA00000BF0C37BD465DF8047B704780B582B02A
:102FB00000AF78607B68002B01D101233FE07B6884
:102FC00093F83930DBB2002B06D17B68002283F8FE
:102FD0003820786804F06EFE7B68242283F839205C
:102FE0007B681B68DA687B681B6822F40052DA6031
:102FF000786800F04BFB7B681B681A697B681B686C
:1030000022F490421A617B681B685A697B681B68CE
:1030100022F02A025A617B681B68DA687B681B68A9
:1030200042F40052DA607B680022DA637B68202277
:1030300083F839207B68202283F83A200023184641
:103040000837BD4680BD80B588B002AFF860B96072
:103050003B601346FB8000237B61FB6893F83930AB
:10306000DBB2202B40F08380BB68002B02D0FB88B2
:10307000002B01D101237BE0FB6893F83830012B52
:1030800001D1022374E0FB68012283F83820FB6839
:103090000022DA63FB68212283F83920FDF74EFA1B
:1030A0007861FB68FA889A84FB68FA88DA84FB689E
:1030B000002283F8382042E0FB68DB8C9BB2013BA6
:1030C0009AB2FB68DA84FB689B68B3F5805F22D113
:1030D0003B6800937B6900228021F86800F06AF960
:1030E0000346002B01D0032342E0BB683B613B69F0
:1030F0001B881A46FB681B68C2F308025A60FB680B
:103100001B69002B03D1BB680233BB6017E0BB68AF
:103110000133BB6013E03B6800937B690022802190
:10312000F86800F047F90346002B01D003231FE0A5
:10313000BB685A1CBA601A78FB681B685A60FB6847
:10314000DB8C9BB2002BB7D13B6800937B690022DC
:103150004021F86800F02EF90346002B01D003232C
:1031600006E0FB68202283F83920002300E00223D8
:1031700018461837BD4680BD80B588B000AF78606E
:103180007B681B681B68FB617B681B68DB68BB6135
:103190007B681B685B697B6100233B610023FB60EC
:1031A000FB6903F00F033B613B69002B0DD1FB6909
:1031B00003F02003002B08D0BB6903F02003002B91
:1031C00003D0786800F0E0F9D1E03B69002B00F013
:1031D000B0807B6903F00103002B05D1BB6903F4C8
:1031E0009073002B00F0A580FB6903F00103002B16
:1031F0000AD0BB6903F48073002B05D07B68DB6BBE
:1032000043F001027B68DA63FB6903F00403002BDF
:103210000AD07B6903F00103002B05D07B68DB6BD0
:1032200043F002027B68DA63FB6903F00203002BC0
:103230000AD07B6903F00103002B05D07B68DB6BB0
:1032400043F004027B68DA63FB6903F00803002B98
:103250000FD0BB6903F02003002B04D17B6903F07E
:103260000103002B05D07B68DB6B43F008027B6811
:10327000DA637B68DB6B002B78D0FB6903F02003FB
:10328000002B07D0BB6903F02003002B02D0786825
:1032900000F07AF97B681B685B6903F04003402B00
:1032A0000CBF01230023DBB2FB607B68DB6B03F008
:1032B0000803002B02D1FB68002B31D0786800F0A6
:1032C000C3F87B681B685B6903F04003402B23D184
:1032D0007B681B685A697B681B6822F040025A6150
:1032E0007B685B6B002B13D07B685B6B214A1A6594
:1032F0007B685B6B1846FDF70FFA0346002B16D070
:103300007B685B6B1B6D7A68526B104698470EE0CA
:10331000786800F045F80AE0786800F041F806E0C7
:10332000786800F03DF87B680022DA631EE000BF99
:103330001CE0FB6903F08003002B08D0BB6903F09D
:103340008003002B03D0786800F0B0F80FE0FB6931
:1033500003F04003002B0AD0BB6903F04003002BAD
:1033600005D0786800F0F8F800BF00E000BF203713
:10337000BD4680BD8534000880B483B000AF78605E
:1033800000BF0C37BD465DF8047B704780B483B046
:1033900000AF786000BF0C37BD465DF8047B704716
:1033A00080B483B000AF786000BF0C37BD465DF8D5
:1033B000047B704780B584B000AFF860B9603B60B3
:1033C0001346FB712CE0BB69B3F1FF3F28D0BB690A
:1033D000002B07D0FDF7B2F802463B68D31ABA6952
:1033E0009A421DD2FB681B68DA68FB681B6822F4EE
:1033F000D072DA60FB681B685A69FB681B6822F0B0
:1034000001025A61FB68202283F83920FB682022E0
:1034100083F83A20FB68002283F8382003230FE06A
:10342000FB681B681A68BB681340BA689A420CBFF5
:1034300001230023DBB21A46FB799A42C3D0002352
:1034400018461037BD4680BD80B483B000AF7860A9
:103450007B681B68DA687B681B6822F49072DA600C
:103460007B681B685A697B681B6822F001025A61FD
:103470007B68202283F83A2000BF0C37BD465DF8F8
:10348000047B704780B584B000AF78607B689B6B2D
:10349000FB60FB680022DA85FB680022DA84F868AA
:1034A000FFF77EFF00BF1037BD4680BD80B485B0FA
:1034B00000AF78607B6893F83930DBB2212B44D1C0
:1034C0007B689B68B3F5805F1AD17B681B6AFB60E1
:1034D000FB681B881A467B681B68C2F308025A60A7
:1034E0007B681B69002B05D17B681B6A9A1C7B6873
:1034F0001A620EE07B681B6A5A1C7B681A6208E03D
:103500007B681B6A591C7A6811621A787B681B6891
:103510005A607B68DB8C9BB2013B9BB27A68194690
:10352000D184002B0FD17B681B68DA687B681B682D
:1035300022F08002DA607B681B68DA687B681B68AF
:1035400042F04002DA60002300E0022318461437FC
:10355000BD465DF8047B704780B582B000AF7860EF
:103560007B681B68DA687B681B6822F04002DA60BF
:103570007B68202283F839207868FFF7FDFE00235E
:1035800018460837BD4680BD80B584B000AF78606E
:103590007B6893F83A30DBB2222B71D17B689B6851
:1035A000B3F5805F23D17B689B6AFB607B681B69F6
:1035B000002B0ED17B681B685B689BB2C3F30803CA
:1035C0009AB2FB681A807B689B6A9A1C7B689A6235
:1035D00029E07B681B685B689BB2DBB29AB2FB6830
:1035E0001A807B689B6A5A1C7B689A621BE07B6826
:1035F0001B69002B0AD17B681B6858687B689B6A33
:10360000591C7A689162C2B21A700CE07B681B6820
:103610005B68DAB27B689B6A581C7968886202F042
:103620007F02D2B21A707B68DB8D9BB2013B9BB2EA
:103630007A681946D185002B20D17B681B68DA682F
:103640007B681B6822F02002DA607B681B68DA68FE
:103650007B681B6822F48072DA607B681B685A6999
:103660007B681B6822F001025A617B68202283F884
:103670003A207868FFF78AFE002302E0002300E08A
:10368000022318461037BD4680BD00002DE9F04FDB
:1036900085B000AF78607B681B681B6923F44051DC
:1036A0007B68DA687B681B680A431A617B689A68E2
:1036B0007B681B691A437B685B691A437B68DB691B
:1036C0001343FB607B681B68DB6823F4164323F01D
:1036D0000C037A681268F9680B43D3607B681B6837
:1036E0005B6923F440717B689A697B681B680A43B5
:1036F0005A617B68DB69B3F5004F40F08B817B68D2
:103700001B68C14A934205D07B681B68BF4A93423D
:1037100040F0BD80FFF762F9B860BB681D464FF00E
:103720000006A846B14618EB080349EB0904984681
:10373000A14618EB050849EB06094FF000014FF0D0
:1037400000024FEAC90242EA58724FEAC8018846AD
:10375000914618EB050049EB06017B685B681D4646
:103760004FF000066B1946EB06041A462346FCF799
:103770002FFD03460C461A46A54BA3FB02235B090B
:103780004FEA0318BB681D464FF00006A946B24633
:1037900019EB09034AEB0A049946A24619EB0509FD
:1037A0004AEB060A4FF000014FF000024FEACA024E
:1037B00042EA59724FEAC9018946924619EB05005F
:1037C0004AEB06017B685B681D464FF000066B19EB
:1037D00046EB06041A462346FCF7FAFC03460C4661
:1037E0001A468B4BA3FB02135B09642101FB03F315
:1037F000D31ADB003233864AA2FB03235B095B004A
:1038000003F4F8739844BB681D464FF00006A946C0
:10381000B24619EB09034AEB0A049946A24619EB92
:1038200005094AEB060A4FF000014FF000024FEA8B
:10383000CA0242EA59724FEAC9018946924619EB17
:1038400005004AEB06017B685B681D464FF00006E9
:103850006B1946EB06041A462346FCF7B9FC0346EF
:103860000C461A466A4BA3FB02135B09642101FB59
:1038700003F3D31ADB003233654AA2FB03235B094F
:1038800003F007027B681B6842449A606FE2FFF70F
:1038900091F8B860BB681D464FF00006A846B146D7
:1038A00018EB080349EB09049846A14618EB0508F4
:1038B00049EB06094FF000014FF000024FEAC90240
:1038C00042EA58724FEAC8018846914618EB050053
:1038D00049EB06017B685B681D464FF000066B19DB
:1038E00046EB06041A462346FCF772FC03460C46D8
:1038F0001A46474BA3FB02235B094FEA0318BB6838
:103900001D464FF00006A946B24619EB09034AEBE3
:103910000A049946A24619EB05094AEB060A4FF03C
:1039200000014FF000024FEACA0242EA59724FEA20
:10393000C9018946924619EB05004AEB06017B68EE
:103940005B681D464FF000066B1946EB06041A46ED
:103950002346FCF73DFC03460C461A462C4BA3FBC2
:1039600002135B09642101FB03F3D31ADB0032333A
:10397000274AA2FB03235B095B0003F4F873984416
:10398000BB681D464FF00006A946B24619EB090375
:103990004AEB0A049946A24619EB05094AEB060AC6
:1039A0004FF000014FF000024FEACA0242EA59729A
:1039B0004FEAC9018946924619EB05004AEB060118
:1039C0007B685B681D464FF000066B1946EB0604EA
:1039D0001A462346FCF7FCFB03460C461A460C4BE2
:1039E000A3FB02135B09642101FB03F3D31ADB0081
:1039F0003233074AA2FB03235B0903F007027B680B
:103A00001B6842449A60B2E100100140001401407A
:103A10001F85EB517B681B68D74A934205D07B68B2
:103A20001B68D64A934240F0D180FEF7D7FFB860BA
:103A3000BB689A464FF0000BD046D94618EB0803F6
:103A400049EB09049846A14618EB0A0849EB0B0913
:103A50004FF000014FF000024FEAC90242EA5872EB
:103A60004FEAC801884691461AEB08054BEB090658
:103A70007B685B6819464FF000024FF000034FF07F
:103A80000004940044EA91748B001A4623462846A9
:103A90003146FCF79DFB03460C461A46B84BA3FB88
:103AA00002235B094FEA0318BB689B464FF0000CEA
:103AB000D946E24619EB09034AEB0A049946A246A5
:103AC00019EB0B094AEB0C0A4FF000014FF0000212
:103AD0004FEACA0242EA59724FEAC9018946924640
:103AE0001BEB09054CEB0A067B685B6819464FF037
:103AF00000024FF000034FF00004940044EA917478
:103B00008B001A46234628463146FCF761FB0346E4
:103B10000C461A469A4BA3FB02135B09642101FB76
:103B200003F3D31A1B013233954AA2FB03235B092B
:103B300003F0F0039844BB689B464FF0000CD94655
:103B4000E24619EB09034AEB0A049946A24619EB2F
:103B50000B094AEB0C0A4FF000014FF000024FEA4C
:103B6000CA0242EA59724FEAC901894692461BEBE2
:103B700009054CEB0A067B685B6819464FF00002AA
:103B80004FF000034FF00004940044EA91748B005E
:103B90001A46234628463146FCF71AFB03460C46D4
:103BA0001A46774BA3FB02135B09642101FB03F365
:103BB000D31A1B013233724AA2FB03235B0903F0C1
:103BC0000F027B681B6842449A60D0E0FEF7F2FE69
:103BD000B860BB689A464FF0000BD046D94618EB48
:103BE000080349EB09049846A14618EB0A0849EB7B
:103BF0000B094FF000014FF000024FEAC90242EA00
:103C000058724FEAC801884691461AEB08054BEBFB
:103C100009067B685B6819464FF000024FF000030D
:103C20004FF00004940044EA91748B001A46234636
:103C300028463146FCF7CCFA03460C461A46504B50
:103C4000A3FB02235B094FEA0318BB689B464FF0B6
:103C5000000CD946E24619EB09034AEB0A049946DF
:103C6000A24619EB0B094AEB0C0A4FF000014FF08A
:103C700000024FEACA0242EA59724FEAC901894674
:103C800092461BEB09054CEB0A067B685B681946FC
:103C90004FF000024FF000034FF00004940044EA9C
:103CA00091748B001A46234628463146FCF790FA59
:103CB00003460C461A46324BA3FB02135B096421F0
:103CC00001FB03F3D31A1B0132332D4AA2FB03235A
:103CD0005B0903F0F0039844BB689B464FF0000C6F
:103CE000D946E24619EB09034AEB0A049946A24673
:103CF00019EB0B094AEB0C0A4FF000014FF00002E0
:103D00004FEACA0242EA59724FEAC901894692460D
:103D10001BEB09054CEB0A067B685B6819464FF004
:103D200000024FF000034FF00004940044EA917445
:103D30008B001A46234628463146FCF749FA0346CB
:103D40000C461A460E4BA3FB02135B09642101FBD0
:103D500003F3D31A1B013233094AA2FB03235B0985
:103D600003F00F027B681B6842449A60FFE700BFC4
:103D70001437BD46BDE8F08F00100140001401402B
:103D80001F85EB5180B483B000AF78607B689B687F
:103D900043F001027B689A60002318460C37BD4649
:103DA0005DF8047B704780B483B000AF78607B68B7
:103DB0009B6823F001027B689A60002318460C3749
:103DC000BD465DF8047B704780B485B000AF786075
:103DD00039600023FB603B689B0143F020027B6855
:103DE0001A61FB680133FB60FB68094A934201D901
:103DF000032306E07B681B6903F02003202BF0D02F
:103E0000002318461437BD465DF8047B704700BF99
:103E1000400D030080B485B000AF78600023FB60E4
:103E20007B6810221A61FB680133FB60FB68094A5A
:103E3000934201D9032306E07B681B6903F010035A
:103E4000102BF0D0002318461437BD465DF8047BD4
:103E5000704700BF400D030080B489B000AFF86028
:103E6000B9601346FB80FB687B61BB68FB61FB8824
:103E700003339B083B610023BB610BE07B6903F5C7
:103E800080531A68FB691A60FB690433FB61BB69E4
:103E90000133BB61BA693B699A42EFD3FB691846AB
:103EA0002437BD465DF8047B704780B485B000AF11
:103EB00078607B685B69FB607B689B69FA6813408C
:103EC000FB60FB6818461437BD465DF8047B7047FD
:103ED00080B483B000AF78607B685B6903F0010356
:103EE00018460C37BD465DF8047B704780B485B03A
:103EF00000AF78600B46FB707B68FB60FB6803F5E6
:103F000080631B68FA6802F5806223F00303136084
:103F1000FB6803F580631A68FB7803F00303F96814
:103F200001F5806113430B60FB78012B07D1FB681F
:103F300003F580631A464BF68033536009E0FB7843
:103F4000022B06D1FB6803F580631A4641F27073B9
:103F50005360002318461437BD465DF8047B704754
:103F600080B485B000AF78607B68FB60FB6803F5C8
:103F700080635B699BB218461437BD465DF8047BCD
:103F8000704780B487B000AF78600B46FB707B68E9
:103F90003B61FB78FB6000237B61FB685A013B6956
:103FA000134403F5A0631B689B0C03F00303BB6081
:103FB000BB68002B02D0BB68022B6CD1FB685A0196
:103FC0003B69134403F5A0631B68FA6851013A6921
:103FD0000A4402F5A06243F0804313607B68DB6A09
:103FE00003F47F03002B43D1FB685A013B69134460
:103FF00003F5A0631B68FA6851013A690A4402F5A7
:10400000A06223F000431360FB685A013B6913442C
:1040100003F5A0631B68FA6851013A690A4402F586
:10402000A06243F000431360FB685A013B691344EC
:1040300003F5A0631B68FA6851013A690A4402F566
:10404000A06223F4004313607B6901337B617B69C9
:10405000B3F57A7F1DD8FB685A013B69134403F519
:10406000A0631B6803F00043B3F1004FECD080E085
:10407000FB685A013B69134403F5A0631B68FA68A7
:1040800051013A690A4402F5A06243F0004313600B
:104090006FE000BF6DE0FB685A013B69134403F514
:1040A000A0631B68FA6851013A690A4402F5A062EC
:1040B00043F0804313603B6903F580631B6903F49D
:1040C0007F03002B43D1FB685A013B69134403F57E
:1040D000A0631B68FA6851013A690A4402F5A062BC
:1040E00023F000431360FB685A013B69134403F556
:1040F000A0631B68FA6851013A690A4402F5A0629C
:1041000043F000431360FB685A013B69134403F515
:10411000A0631B68FA6851013A690A4402F5A0627B
:1041200023F4004313607B6901337B617B69B3F542
:104130007A7F1DD8FB685A013B69134403F5A063DD
:104140001B6803F00043B3F1004FECD011E0FB68B3
:104150005A013B69134403F5A0631B68FA685101D7
:104160003A690A4402F5A06243F00043136000E09C
:1041700000BF002318461C37BD465DF8047B70471E
:1041800080B586B000AF78607B68FB6000237B6100
:104190007868FFF708FE10217868FFF715FE786849
:1041A000FFF738FE00233B611FE03B695A01FB68C3
:1041B000134403F5A0631B68BB60BB6843F08043F6
:1041C000BB60BB6823F00043BB60BB6823F40043C3
:1041D000BB603B695A01FB68134403F5A0631A46B0
:1041E000BB6813603B6901333B613B690F2BDCD932
:1041F00000233B6134E03B695A01FB68134403F53B
:10420000A0631B68BB60BB6843F08043BB60BB68B6
:1042100043F00043BB60BB6823F40043BB603B69D1
:104220005A01FB68134403F5A0631A46BB68136088
:104230007B6901337B617B69B3F57A7F0CD83B697D
:104240005A01FB68134403F5A0631B6803F00043A5
:10425000B3F1004FECD000E000BF3B6901333B619C
:104260003B690F2BC7D9FB6803F580631A464FF0F3
:10427000FF3353617B684FF0FF325A617868FFF774
:1042800081FD002318461837BD4680BD80B582B039
:1042900000AF78607B68D3F8C4335A1C7B68C3F8DE
:1042A000C423786800F004F800BF0837BD4680BD1D
:1042B00080B582B000AF78607B681B78DBB20B2BD7
:1042C0000AD17B68D3F87C33002B05D07B68D3F808
:1042D0007C339B697868984700BF0837BD4680BD2E
:1042E00080B582B000AF78607B68012283F8232319
:1042F0007B680122C3F8E0237B68D3F8D8037B688E
:10430000D3F8E0330022194600F0A2F900BF0837C5
:10431000BD4680BD80B483B000AF78607B6800226A
:1043200083F8232300BF0C37BD465DF8047B70473C
:1043300080B582B000AF78607B68012283F82023CB
:104340007B68002283F821237B68002283F82223E4
:104350007B680122C3F8E0237B68D3F8D8037B682D
:10436000D3F8E0330022194600F072F90023184612
:104370000837BD4680BD80B582B000AF78607B68ED
:10438000012283F821237B68002283F820237B68A5
:10439000002283F82323786803F06EFE7B681B7984
:1043A0001946786800F030F87B685B7919467868C0
:1043B00000F02AF87B680122C3F8E0237B68D3F879
:1043C000D8037B68D3F8E0330022194600F040F9A7
:1043D000002318460837BD4680BD80B582B000AFC7
:1043E00078607B680122C3F8E0237B68D3F8D803A8
:1043F0007B68D3F8E0330022194600F029F9002346
:1044000018460837BD4680BD80B483B000AF7860E1
:104410000B46FB70FB780A2B0DD8FB787A68E033EB
:104420009B0013445A68FB78C2F30E027968E033AC
:104430009B000B445A60002318460C37BD465DF8BC
:10444000047B704780B485B000AF0346FB80002337
:10445000FB60B7F90630842B05D0B7F90620FB685E
:1044600013440333FB60FB6818461437BD465DF800
:10447000047B704780B483B000AFEFF305837B60AB
:104480007B68002B14BF01230023DBB218460C37D6
:10449000BD465DF8047B704780B500AF01F0B0F910
:1044A0000023184680BDF0B589B004AF786039604C
:1044B0007B685B69002B20D07B689B69002B1CD03C
:1044C0007B685C687B681D687B681E697B68B3F9E4
:1044D00008301846FFF7B6FF01467B685B697A68CB
:1044E00092690292019300913B6832462946204628
:1044F00000F0C2FF0346FB601CE07B685C687B68E1
:104500001D687B681B699EB27B68B3F9083018464A
:10451000FFF798FF024607F10C03019300923B68F6
:1045200032462946204601F001F80346012B01D00E
:10453000002300E0FB6818461437BD46F0BD80B587
:1045400084B000AF78607B68FB60FB68002B01D013
:10455000FB6800E00123184601F01EF9002318460D
:104560001037BD4680BD80B582B000AF78607B68F3
:104570005B68002B07D07B685B681946012000F060
:10458000C6FA034603E0012000F0A9FA03461846E4
:104590000837BD4680BD80B586B002AF786039600F
:1045A0007B685B68002B10D03B68012B0BD17B68CC
:1045B0005A6803230093134600220021012000F0D3
:1045C000A3F9034616E0002314E03B68012B10D149
:1045D00003220021012000F00AFAF860FB68002B9A
:1045E00005D0002300220021F86800F0ABFAFB6838
:1045F00000E0002318461037BD4680BD90B585B059
:1046000002AF786039607B689B68002B12D07B68B2
:10461000DB68002B0ED07B6818687B6859687B6864
:104620009A687B68DC6800230093234600F06CF9ED
:10463000034608E07B6818687B685B6800221946BF
:1046400000F0D5F9034618460C37BD4690BD000072
:1046500080B586B000AFF860B9607A6000233B6136
:104660007B687B617B69002B01D101237B61FFF7B4
:1046700001FF0346002B18D007F1100207F10801D3
:104680000023F86800F058FB0346012B01D0FF23FC
:1046900018E03B69002B14D00C4B4FF080521A608D
:1046A000BFF34F8FBFF36F8F0BE007F108010023BB
:1046B0007A69F86800F046FA0346012B01D0FF231F
:1046C00000E0002318461837BD4680BD04ED00E029
:1046D00080B483B000AF78607B6803F108027B6828
:1046E0005A607B684FF0FF329A607B6803F10802E2
:1046F0007B68DA607B6803F108027B681A617B687B
:1047000000221A6000BF0C37BD465DF8047B70477D
:1047100080B483B000AF78607B6800221A6100BF6C
:104720000C37BD465DF8047B704780B485B000AFA0
:10473000786039607B685B68FB603B68FA685A6048
:10474000FB689A683B689A60FB689B683A685A60A5
:10475000FB683A689A603B687A681A617B681B68F4
:104760005A1C7B681A6000BF1437BD465DF8047B95
:10477000704780B485B000AF786039603B681B68D3
:10478000BB60BB68B3F1FF3F03D17B681B69FB6073
:104790000CE07B680833FB6002E0FB685B68FB6051
:1047A000FB685B681B68BA689A42F6D2FB685A6875
:1047B0003B685A603B685B683A689A603B68FA6895
:1047C0009A60FB683A685A603B687A681A617B684D
:1047D0001B685A1C7B681A6000BF1437BD465DF821
:1047E000047B704780B485B000AF78607B681B693C
:1047F000FB607B685B687A6892689A607B689B68FC
:104800007A6852685A60FB685B687A689A4203D19A
:104810007B689A68FB685A607B6800221A61FB68B3
:104820001B685A1EFB681A60FB681B681846143721
:10483000BD465DF8047B704780B584B000AF7860FA
:1048400039607B68FB60FB68002B09D14FF0500397
:1048500083F31188BFF36F8FBFF34F8FBB60FEE709
:1048600001F01CFFFB681A68FB68DB6BF968096CD8
:1048700001FB03F31A44FB689A60FB6800229A6309
:10488000FB681A68FB685A60FB681A68FB68DB6B98
:10489000013BF968096C01FB03F31A44FB68DA6019
:1048A000FB68FF2283F84420FB68FF2283F8452041
:1048B0003B68002B14D1FB681B69002B1AD0FB68E6
:1048C0001033184601F0DAF90346002B12D00D4BD5
:1048D0004FF080521A60BFF34F8FBFF36F8F09E024
:1048E000FB6810331846FFF7F3FEFB6824331846C5
:1048F000FFF7EEFE01F000FF012318461037BD461A
:1049000080BD00BF04ED00E080B58EB002AFF8605E
:10491000B9607A603B60FB68002B09D14FF050030F
:1049200083F31188BFF36F8FBFF34F8FBB62FEE736
:104930003B68002B09D14FF0500383F31188BFF37C
:104940006F8FBFF34F8F7B62FEE77B68002B02D037
:10495000BB68002B01D0012300E00023002B09D10C
:104960004FF0500383F31188BFF36F8FBFF34F8F66
:104970003B62FEE77B68002B02D1BB68002B01D1B4
:10498000012300E00023002B09D14FF0500383F3F3
:104990001188BFF36F8FBFF34F8FFB61FEE7482392
:1049A0007B617B69482B09D04FF0500383F311885A
:1049B000BFF36F8FBFF34F8FBB61FEE77B693B682F
:1049C000FB62FB6A002B0DD0FB6A012283F84620B4
:1049D00097F83820FB6A009313467A68B968F8683C
:1049E00000F044F8FB6A18463037BD4680BD80B5FC
:1049F0008AB002AFF860B9601346FB71FB68002B08
:104A000009D14FF0500383F31188BFF36F8FBFF3C9
:104A10004F8F3B61FEE7BB68002B02D10023FB6197
:104A200004E0FB68BA6802FB03F3FB61FB694833EF
:104A3000184601F04DFFB861BB69002B11D0BB696E
:104A40007B617B6948337B61BB69002283F8462028
:104A5000FA79BB69009313467A69B968F86800F07F
:104A600005F8BB6918462037BD4680BD80B584B0C7
:104A700000AFF860B9607A60FB70BB68002B03D1AF
:104A8000BB69BA691A6002E0BB697A681A60BB69DF
:104A9000FA68DA63BB69BA681A640121B869FFF77A
:104AA000CBFE00BF1037BD4680BD80B582B000AFE1
:104AB00078607B68002B0ED07B6800229A607B6850
:104AC00000221A607B680022DA60002300220021A5
:104AD000786800F037F800BF0837BD4680BD80B564
:104AE00086B000AF0346FB7101237B6100233B616D
:104AF000FB791A4639697869FFF779FFF860F86839
:104B0000FFF7D3FFFB6818461837BD4680BD80B558
:104B100088B002AF03463960FB7101237B6100233B
:104B20003B61FB7900933B68002239697869FFF7A4
:104B3000EBFEF860F868FFF7B8FFFB681846183717
:104B4000BD4680BD80B58EB000AFF860B9607A60B8
:104B50003B6000237B63FB683B633B6B002B09D10D
:104B60004FF0500383F31188BFF36F8FBFF34F8F64
:104B7000BB62FEE7BB68002B03D13B6B1B6C002BB9
:104B800001D1012300E00023002B09D14FF0500395
:104B900083F31188BFF36F8FBFF34F8F7B62FEE704
:104BA0003B68022B03D13B6BDB6B012B01D1012353
:104BB00000E00023002B09D14FF0500383F311884C
:104BC000BFF36F8FBFF34F8F3B62FEE701F00EFA2A
:104BD0000346002B02D17B68002B01D1012300E0AA
:104BE0000023002B09D14FF0500383F31188BFF34A
:104BF0006F8FBFF34F8FFB61FEE701F04FFD3B6B03
:104C00009A6B3B6BDB6B9A4202D33B68022B29D138
:104C10003A68B968386B00F01FFBF8623B6B5B6A5F
:104C2000002B10D03B6B2433184601F027F80346C5
:104C3000002B13D03F4B4FF080521A60BFF34F8FC1
:104C4000BFF36F8F0AE0FB6A002B07D0394B4FF0A0
:104C500080521A60BFF34F8FBFF36F8F01F04CFD8E
:104C6000012363E07B68002B03D101F045FD0023A5
:104C70005CE07B6B002B06D107F11403184601F0B2
:104C80005FF801237B6301F037FD00F017FE01F0B0
:104C900005FD3B6B93F844305BB2B3F1FF3F03D1AA
:104CA0003B6B002283F844203B6B93F845305BB2AA
:104CB000B3F1FF3F03D13B6B002283F8452001F0A5
:104CC0001BFD3A1D07F114031146184601F04EF87A
:104CD0000346002B24D1386B00F0B6FB0346002BB3
:104CE00018D03B6B10337A681146184600F0A2FFCB
:104CF000386B00F041FB00F0EFFD0346002B7FF422
:104D00007CAF0C4B4FF080521A60BFF34F8FBFF354
:104D10006F8F72E7386B00F02FFB00F0DDFD6CE762
:104D2000386B00F029FB00F0D7FD00231846383718
:104D3000BD4680BD04ED00E080B58EB000AFF860E8
:104D4000B9607A603B60FB683B633B6B002B09D129
:104D50004FF0500383F31188BFF36F8FBFF34F8F72
:104D60007B62FEE7BB68002B03D13B6B1B6C002B07
:104D700001D1012300E00023002B09D14FF05003A3
:104D800083F31188BFF36F8FBFF34F8F3B62FEE752
:104D90003B68022B03D13B6BDB6B012B01D1012361
:104DA00000E00023002B09D14FF0500383F311885A
:104DB000BFF36F8FBFF34F8FFB61FEE701F04AFD3A
:104DC000EFF311824FF0500383F31188BFF36F8F1D
:104DD000BFF34F8FBA617B61BB69FB623B6B9A6B20
:104DE0003B6BDB6B9A4202D33B68022B2CD13B6BB3
:104DF00093F8453087F82B303A68B968386B00F083
:104E00002BFA97F92B30B3F1FF3F12D13B6B5B6A62
:104E1000002B16D03B6B2433184600F02FFF0346BF
:104E2000002B0ED07B68002B0BD07B6801221A6010
:104E300007E097F82B300133DBB25AB23B6B83F8B3
:104E4000452001237B6301E000237B63FB6A3B6118
:104E50003B6983F311887B6B18463837BD4680BDAC
:104E600080B58CB000AFF860B9607A600023FB6257
:104E7000FB68BB62BB6A002B09D14FF0500383F380
:104E80001188BFF36F8FBFF34F8F3B62FEE7BB68A4
:104E9000002B03D1BB6A1B6C002B01D1012300E066
:104EA0000023002B09D14FF0500383F31188BFF387
:104EB0006F8FBFF34F8FFB61FEE701F097F803465A
:104EC000002B02D17B68002B01D1012300E00023DD
:104ED000002B09D14FF0500383F31188BFF36F8F7C
:104EE000BFF34F8FBB61FEE701F0D8FBBB6A9B6B42
:104EF0007B627B6A002B1FD0B968B86A00F016FA93
:104F00007B6A5A1EBB6A9A63BB6A1B69002B0FD06F
:104F1000BB6A1033184600F0B1FE0346002B07D0E1
:104F20003C4B4FF080521A60BFF34F8FBFF36F8F2F
:104F300001F0E2FB012369E07B68002B03D101F063
:104F4000DBFB002362E0FB6A002B06D107F11003B4
:104F5000184600F0F5FE0123FB6201F0CDFB00F0E6
:104F6000ADFC01F09BFBBB6A93F844305BB2B3F13C
:104F7000FF3F03D1BB6A002283F84420BB6A93F849
:104F800045305BB2B3F1FF3F03D1BB6A002283F827
:104F9000452001F0B1FB3A1D07F1100311461846F8
:104FA00000F0E4FE0346002B23D1B86A00F036FA85
:104FB0000346002B17D0BB6A24337A681146184683
:104FC00000F038FEB86A00F0D7F900F085FC03461F
:104FD000002B89D10F4B4FF080521A60BFF34F8FD7
:104FE000BFF36F8F80E7B86A00F0C6F900F074FC79
:104FF0007AE7B86A00F0C0F900F06EFCB86A00F019
:105000000DFA0346002B3FF46FAF002318463037EC
:10501000BD4680BD04ED00E080B58EB000AF786085
:10502000396000237B637B68FB6200233B63FB6A80
:10503000002B09D14FF0500383F31188BFF36F8F1A
:10504000BFF34F8F3B62FEE7FB6A1B6C002B09D05E
:105050004FF0500383F31188BFF36F8FBFF34F8F6F
:10506000FB61FEE700F0C2FF0346002B02D13B6864
:10507000002B01D1012300E00023002B09D14FF0C8
:10508000500383F31188BFF36F8FBFF34F8FBB6162
:10509000FEE701F003FBFB6A9B6BBB62BB6A002B64
:1050A00024D0BB6A5A1EFB6A9A63FB6A1B68002BFA
:1050B00004D101F055F90246FB6A9A60FB6A1B694C
:1050C000002B0FD0FB6A1033184600F0D7FD0346C3
:1050D000002B07D0534B4FF080521A60BFF34F8F15
:1050E000BFF36F8F01F008FB012396E03B68002BB4
:1050F00010D13B6B002B09D04FF0500383F3118884
:10510000BFF36F8FBFF34F8F7B61FEE701F0F4FABF
:10511000002382E07B6B002B06D107F10C031846BD
:1051200000F00EFE01237B6301F0E6FA00F0C6FBFF
:1051300001F0B4FAFB6A93F844305BB2B3F1FF3F7D
:1051400003D1FB6A002283F84420FB6A93F84530C0
:105150005BB2B3F1FF3F03D1FB6A002283F8452025
:1051600001F0CAFA3A4607F10C031146184600F05E
:10517000FDFD0346002B32D1F86A00F04FF90346DB
:10518000002B26D0FB6A1B68002B09D101F086FAA0
:10519000FB6A9B68184600F047FF386301F0ACFAE1
:1051A000FB6A24333A681146184600F043FDF86A5A
:1051B00000F0E2F800F090FB0346002B7FF469AFAB
:1051C000184B4FF080521A60BFF34F8FBFF36F8FB1
:1051D0005FE7F86A00F0D0F800F07EFB59E7F86A64
:1051E00000F0CAF800F078FBF86A00F017F90346FF
:1051F000002B3FF44EAF3B6B002B0DD001F04EFA6D
:10520000F86A00F011F87862FB6A9B68796A1846C0
:1052100001F00EF801F070FA002318463837BD4649
:1052200080BD00BF04ED00E080B485B000AF7860C1
:105230007B685B6A002B06D07B681B6B1B68C3F125
:105240000703FB6001E00023FB60FB68184614378E
:10525000BD465DF8047B704780B586B000AFF8604E
:10526000B9607A6000237B61FB689B6B3B61FB68E4
:105270001B6C002B0DD1FB681B68002B4DD1FB680C
:105280009B68184600F050FF7861FB6800229A6026
:1052900043E07B68002B19D1FB685868FB681B6CE6
:1052A0001A46B96802F07EFFFB685A68FB681B6CFF
:1052B0001A44FB685A60FB685A68FB689B689A420C
:1052C0002BD3FB681A68FB685A6026E0FB68D86835
:1052D000FB681B6C1A46B96802F064FFFB68DA6869
:1052E000FB681B6C5B421A44FB68DA60FB68DA6897
:1052F000FB681B689A4207D2FB689A68FB681B6CC4
:105300005B421A44FB68DA607B68022B05D13B697B
:10531000002B02D03B69013B3B613B695A1CFB6897
:105320009A637B6918461837BD4680BD80B582B048
:1053300000AF786039607B681B6C002B18D07B68ED
:10534000DA687B681B6C1A447B68DA607B68DA6811
:105350007B689B689A4203D37B681A687B68DA6033
:105360007B68D9687B681B6C1A46386802F01AFFA4
:1053700000BF0837BD4680BD80B584B000AF7860FF
:1053800001F08CF97B6893F84530FB7311E07B6882
:105390005B6A002B12D07B682433184600F06EFC49
:1053A0000346002B01D000F041FDFB7B013BDBB24B
:1053B000FB7397F90F30002BE9DC00E000BF7B683E
:1053C000FF2283F8452001F097F901F067F97B6827
:1053D00093F84430BB7311E07B681B69002B12D03B
:1053E0007B681033184600F049FC0346002B01D0BF
:1053F00000F01CFDBB7B013BDBB2BB7397F90E30A9
:10540000002BE9DC00E000BF7B68FF2283F844202A
:1054100001F072F900BF1037BD4680BD80B584B081
:1054200000AF786001F03AF97B689B6B002B02D1EA
:105430000123FB6001E00023FB6001F05DF9FB68E4
:1054400018461037BD4680BD80B584B000AF786087
:1054500001F024F97B689A6B7B68DB6B9A4202D17E
:105460000123FB6001E00023FB6001F045F9FB68CC
:1054700018461037BD4680BD80B58EB004AFF860C9
:10548000B9607A603B607B6B002B09D14FF0500311
:1054900083F31188BFF36F8FBFF34F8F3B62FEE73B
:1054A000BB6B002B09D14FF0500383F31188BFF37E
:1054B0006F8FBFF34F8FFB61FEE754233B613B6966
:1054C000542B09D04FF0500383F31188BFF36F8F33
:1054D000BFF34F8FBB61FEE73B69BB6B002B1ED058
:1054E0007B6B002B1BD0BB6B7B627B6A7A6B1A6376
:1054F0007B6A022283F85120002303937B6A029384
:1055000007F1140301933B6B00933B687A68B96819
:10551000F86800F050F8786A00F0D4F801E0002351
:105520007B617B6918462837BD4680BD80B58CB04D
:1055300004AFF860B9603B601346FB80FB889B00BA
:10554000184601F0C5F978617B69002B0ED0542014
:1055500001F0BEF9F861FB69002B03D0FB697A69A1
:105560001A6305E0786901F075FA01E00023FB6138
:10557000FB69002B17D0FB69002283F85120FA88C1
:1055800000230393FB690293FB6A0193BB6A0093B8
:105590003B68B968F86800F00EF8F86900F092F816
:1055A0000123BB6102E04FF0FF33BB61BB691846CA
:1055B0002037BD4680BD80B588B000AFF860B960C7
:1055C0007A603B603B6B1A6B7B6803F18043013B65
:1055D0009B001344BB61BB6923F00703BB61BB693C
:1055E00003F00703002B09D04FF0500383F3118819
:1055F000BFF36F8FBFF34F8F7B61FEE7BB68002B5C
:105600001FD00023FB6112E0BA68FB6913441978CC
:105610003A6BFB69134434330A461A70BA68FB6963
:1056200013441B78002B06D0FB690133FB61FB6937
:105630000F2BE9D900E000BF3B6B002283F8432029
:1056400003E03B6B002283F83420BB6A062B01D9B0
:105650000623BB623B6BBA6ADA623B6BBA6A5A6476
:105660003B6B00229A643B6B04331846FFF750F8FB
:105670003B6B18331846FFF74BF83B6B3A6B1A61DC
:10568000BB6AC3F107023B6B9A613B6B3A6B5A6290
:105690003B6B0022DA643B6B002283F850203A68AF
:1056A000F968B86900F0D6FE02463B6B1A60FB6AE7
:1056B000002B02D0FB6A3A6B1A6000BF2037BD4650
:1056C00080BD000080B582B000AF786000F0E6FFDA
:1056D0002A4B1B680133294A1360294B1B68002B96
:1056E00009D1274A7B681360244B1B68012B10D11A
:1056F00000F0C2FB0DE0234B1B68002B09D1204BAF
:105700001B68DA6A7B68DB6A9A4202D81C4A7B68AB
:1057100013601D4B1B6801331B4A13607B68DB6AF7
:1057200001229A40194B1B681343184A13607B6887
:10573000DA6A13469B0013449B00154A1A447B689F
:10574000043319461046FEF7F0FF00F0D5FF0D4B6D
:105750001B68002B0ED00A4B1B68DA6A7B68DB6A79
:105760009A4207D20B4B4FF080521A60BFF34F8F13
:10577000BFF36F8F00BF0837BD4680BD2C010020EE
:105780002C000020380100204801002034010020B6
:105790003000002004ED00E080B584B000AF7860F8
:1057A0000023FB607B68002B16D0134B1B68002B7B
:1057B00009D04FF0500383F31188BFF36F8FBFF30D
:1057C0004F8FBB60FEE700F079F80021786800F0A9
:1057D000DBFD00F081F8F860FB68002B07D1074B78
:1057E0004FF080521A60BFF34F8FBFF36F8F00BF2F
:1057F0001037BD4680BD00BF5401002004ED00E01D
:1058000080B58AB004AF0023BB6000237B603A46BA
:10581000391D07F10803184601F0B2FF39687B68AB
:10582000BA68029201930023009300230A461D499F
:105830001D48FFF721FE02461C4B1A601B4B1B68DC
:10584000002B02D001237B6101E000237B617B6997
:10585000012B15D14FF0500383F31188BFF36F8FE5
:10586000BFF34F8F3B61124B4FF0FF321A60114B69
:1058700001221A60104B00221A6000F071FE0DE048
:105880007B69B3F1FF3F09D14FF0500383F31188D7
:10589000BFF36F8FBFF34F8FFB60FEE700BF18377A
:1058A000BD4680BDE4810008455E0008500100202F
:1058B0004C010020380100203001002080B400AFEE
:1058C000044B1B680133034A136000BFBD465DF8FB
:1058D000047B70475401002080B584B000AF0023E2
:1058E000FB600023BB60414B1B68002B09D14FF0CC
:1058F000500383F31188BFF36F8FBFF34F8F3B606B
:10590000FEE700F0CBFE394B1B68013B374A1360C2
:10591000364B1B68002B61D1354B1B68002B5DD0CB
:105920002EE0344BDB68DB68FB60FB6818331846FD
:10593000FEF758FFFB6804331846FEF753FFFB6879
:10594000DB6A01229A402C4B1B6813432A4A1360DE
:10595000FB68DA6A13469B0013449B00274A1A44EB
:10596000FB68043319461046FEF7DFFEFB68DA6A6F
:10597000234B1B68DB6A9A4202D3224B01221A6036
:105980001C4B1B68002BCCD1FB68002B01D000F016
:105990000DFB1D4B1B687B607B68002B10D000F05B
:1059A00037F80346002B02D0164B01221A607B68A1
:1059B000013B7B607B68002BF1D1134B00221A6006
:1059C000104B1B68002B09D00123BB600F4B4FF01D
:1059D00080521A60BFF34F8FBFF36F8F00F08CFEC1
:1059E000BB6818461037BD4680BD00BF540100207B
:1059F0002C010020EC0000203401002030000020A9
:105A00002C000020400100203C01002004ED00E0BB
:105A100080B586B000AF00237B614E4B1B68002B26
:105A200040F087804C4B1B6801333B614A4A3B691D
:105A300013603B69002B1FD1484B1B681B68002B70
:105A400009D04FF0500383F31188BFF36F8FBFF37A
:105A50004F8F3B60FEE7414B1B68FB60404B1B6870
:105A60003E4A13603E4AFB6813603E4B1B6801339D
:105A70003C4A136000F09AFA3B4B1B683A699A4221
:105A800048D3364B1B681B68002B04D1364B4FF0B4
:105A9000FF321A603EE0314B1B68DB68DB68BB609D
:105AA000BB685B687B603A697B689A4203D22E4A86
:105AB0007B6813602EE0BB6804331846FEF792FE45
:105AC000BB689B6A002B04D0BB6818331846FEF7EE
:105AD00089FEBB68DB6A01229A40244B1B68134392
