:020000040800F2
:100000000000022009B90008E5B10008F3B10008BA
:10001000F9B10008FFB1000805B2000800000000B7
:10002000000000000000000000000000D197000860
:100030000BB2000800000000119A0008799A00082D
:1000400059B9000859B9000859B9000859B9000848
:1000500059B9000859B9000859B9000859B9000838
:1000600059B9000859B9000859B9000859B9000828
:1000700059B9000859B9000859B9000859B9000818
:1000800059B9000859B9000859B9000859B9000808
:1000900059B9000859B9000859B9000859B90008F8
:1000A00059B9000859B9000859B9000859B90008E8
:1000B00019B2000859B9000859B9000859B900081F
:1000C00059B9000859B9000859B9000859B90008C8
:1000D00059B9000859B900085DAD000881AD0008A4
:1000E00059B9000859B9000859B9000859B90008A8
:1000F00059B9000859B9000859B9000859B9000898
:1001000059B9000859B9000859B9000859B9000887
:1001100059B9000859B9000859B9000859B9000877
:1001200059B9000859B9000859B9000859B9000867
:1001300059B9000859B9000859B9000859B9000857
:1001400059B9000859B9000859B900082DB200087A
:1001500059B9000859B9000859B90008BDAD0008DF
:1001600059B9000859B9000859B9000859B9000827
:1001700059B9000859B9000859B900080000000031
:0801800059B9000859B9000843
:1001900010B5054C237833B9044B13B10448AFF3C1
:1001A00000800123237010BD940000200000000097
:1001B0006CBB000808B5034B1BB103490348AFF300
:1001C000008008BD00000000980000206CBB000803
:1001D00053B94AB9002908BF00281CBF4FF0FF31AE
:1001E0004FF0FF3000F072B9ADF1080C6DE904CEAC
:1001F00000F006F8DDF804E0DDE9022304B0704702
:100200002DE9F047089E04468846002B4BD18A42D0
:10021000154667D9B2FA82F24AB1C2F1200701FA53
:1002200002F320FA07F7954047EA030894404FEAA3
:10023000154E230CB8FBFEF71FFA85FC0EFB178842
:1002400043EA084307FB0CF1994209D9EB1807F17F
:10025000FF3080F01B81994240F21881023F2B440D
:100260005B1AA4B2B3FBFEF00EFB103344EA034466
:1002700000FB0CFCA44509D92C1900F1FF3380F0D8
:100280000781A44540F2048102382C4440EA07402B
:10029000A4EB0C0400271EB1D4400023C6E90043A0
:1002A0003946BDE8F0878B4209D9002E00F0EB807B
:1002B0000027C6E9000138463946BDE8F087B3FAA1
:1002C00083F7002F47D18B4202D3824200F2FA809B
:1002D000841A61EB030301209846002EE0D0C6E9A2
:1002E0000048DDE702B9FFDEB2FA82F2002A40F0F0
:1002F0008F80491B4FEA154E1FFA85F80127B1FB85
:10030000FEFC230C0EFB1C1143EA014308FB0CF11D
:10031000994207D9EB180CF1FF3002D2994200F252
:10032000CD808446591AA3B2B1FBFEF00EFB101427
:1003300043EA044408FB00F8A04507D92C1900F152
:10034000FF3302D2A04500F2B6801846A4EB0804A1
:1003500040EA0C409FE7C7F1200CBB4022FA0CFE9C
:100360004EEA030E01FA07F420FA0CF521FA0CF319
:100370004FEA1E482543B3FBF8F92C0C08FB193350
:100380001FFA8EFA44EA034309FB0AF49C4202FA7C
:1003900007F200FA07F10BD91EEB030309F1FF3056
:1003A00080F087809C4240F28480A9F10209734466
:1003B0001B1BADB2B3FBF8F008FB103345EA034456
:1003C00000FB0AFAA24508D91EEB040400F1FF3332
:1003D0006BD2A24569D90238744440EA0940A0FBB7
:1003E0000289A4EB0A044C45C2464B4654D351D073
:1003F000002E69D0B1EB0A0564EB030404FA0CFC8F
:10040000FD40FC404CEA0505C6E90054002747E7DB
:10041000C2F1200320FA03F7954001FA02F021FA15
:1004200003F34FEA154E3843010CB3FBFEF71FFAF6
:1004300085F80EFB173341EA034107FB08F38B42B3
:1004400004FA02F407D9691807F1FF3C2FD28B4256
:100450002DD9023F2944CB1A81B2B3FBFEF00EFB2B
:10046000103341EA034100FB08F38B4207D96918B6
:1004700000F1FF3C17D28B4215D902382944C91A22
:1004800040EA07473BE73746304609E70746E7E6D5
:100490001846FBE64145ABD2B8EB020A69EB0E0207
:1004A00001381346A4E76046E9E7184695E7674632
:1004B000D1E781467CE702382C4447E7ACF1020CD7
:1004C0002B442FE7384608E73746E9E6704700BF78
:1004D00080B500AF0E4B1B680D4A43F400731360E8
:1004E0000B4B1B680A4A43F480631360084B1B687C
:1004F000074A43F480731360032000F0FAF80020E9
:100500000AF016FE0AF08CFC0023184680BD00BFDE
:10051000003C024080B400AF064B1B781A46064BE5
:100520001B681344044A136000BFBD465DF8047B9A
:10053000704700BF040000206C40002080B400AF72
:10054000034B1B681846BD465DF8047B704700BF2F
:100550006C40002080B584B000AF7860FFF7EEFFFC
:10056000B8607B68FB60FB68B3F1FF3F05D0094BC7
:100570001B781A46FB681344FB6000BFFFF7DEFFE1
:100580000246BB68D31AFA689A42F7D800BF103700
:10059000BD4680BD0400002080B485B000AF786007
:1005A0007B6803F00703FB600C4BDB68BB60BA6839
:1005B0004FF6FF031340BB60FB681A02BB6813438E
:1005C00043F0BF6343F40033BB60044ABB68D360AD
:1005D00000BF1437BD465DF8047B704700ED00E0B6
:1005E00080B400AF044BDB681B0A03F00703184616
:1005F000BD465DF8047B704700ED00E080B483B039
:1006000000AF0346FB7197F90730002B0BDBFB793A
:1006100003F01F02074997F907305B09012000FA30
:1006200002F241F8232000BF0C37BD465DF8047B81
:10063000704700BF00E100E080B483B000AF034624
:100640003960FB7197F90730002B0ADB3B68DAB29F
:100650000C4997F907301201D2B20B4483F80023FA
:100660000AE03B68DAB20849FB7903F00F03043B68
:100670001201D2B20B441A7600BF0C37BD465DF8AA
:10068000047B704700E100E000ED00E080B489B039
:1006900000AFF860B9607A60FB6803F00703FB61A4
:1006A000FB69C3F10703042B28BF0423BB61FB696B
:1006B0000433062B02D9FB69033B00E000237B6176
:1006C0004FF0FF32BB6902FA03F3DA43BB681A400A
:1006D0007B699A404FF0FF317B6901FA03F3D943FC
:1006E0007B680B40134318462437BD465DF8047BF6
:1006F000704780B582B000AF78607868FFF74CFF34
:1007000000BF0837BD4680BD80B586B000AF034648
:10071000B9607A60FB7300237B61FFF761FF78614A
:100720007A68B9687869FFF7B1FF024697F90F3028
:1007300011461846FFF780FF00BF1837BD4680BD41
:1007400080B582B000AF0346FB7197F907301846B9
:10075000FFF754FF00BF0837BD4680BD80B483B0AB
:1007600000AF78607B6893F83530DBB2022B04D0A1
:100770007B6880225A6501230CE07B68052283F8A0
:1007800035207B681B681A687B681B6822F00102B1
:100790001A60002318460C37BD465DF8047B70478D
:1007A00080B489B000AF7860396000237B6100239A
:1007B0003B610023BB610023FB616BE10122FB690C
:1007C00002FA03F37B613B681B687A6913403B6163
:1007D0003A697B699A4240F05A813B685B68012B19
:1007E0000BD03B685B68022B07D03B685B68112B22
:1007F00003D03B685B68122B30D17B689B68BB6180
:10080000FB695B00032202FA03F3DB43BA6913407E
:10081000BB613B68DA68FB695B0002FA03F3BA6903
:100820001343BB617B68BA699A607B685B68BB6194
:100830000122FB6902FA03F3DB43BA691340BB618F
:100840003B685B681B0903F00102FB6902FA03F3D2
:10085000BA691343BB617B68BA695A607B68DB681D
:10086000BB61FB695B00032202FA03F3DB43BA6955
:100870001340BB613B689A68FB695B0002FA03F3B3
:10088000BA691343BB617B68BA69DA603B685B682D
:10089000022B03D03B685B68122B23D1FB69DA087B
:1008A0007B68083253F82230BB61FB6903F0070311
:1008B0009B000F2202FA03F3DB43BA691340BB61CA
:1008C0003B681A69FB6903F007039B0002FA03F314
:1008D000BA691343BB61FB69DA087B680832B969FE
:1008E00043F822107B681B68BB61FB695B00032235
:1008F00002FA03F3DB43BA691340BB613B685B68F0
:1009000003F00302FB695B0002FA03F3BA691343C5
:10091000BB617B68BA691A603B685B6803F080530F
:10092000002B00F0B4800023FB605F4B5B6C5E4AE1
:1009300043F4804353645C4B5B6C03F48043FB6083
:10094000FB685A4AFB699B08023352F82330BB61AB
:10095000FB6903F003039B000F2202FA03F3DB435E
:10096000BA691340BB617B68514A93422BD07B68C4
:10097000504A934225D07B684F4A93421FD07B68F0
:100980004E4A934219D07B684D4A934213D07B68FC
:100990004C4A93420DD07B684B4A934207D07B6808
:1009A0004A4A934201D107230EE008230CE00623B4
:1009B0000AE0052308E0042306E0032304E0022301
:1009C00002E0012300E00023FA6902F00302920032
:1009D0009340BA691343BB613449FB699B080233F6
:1009E000BA6941F823203A4B1B68BB613B69DB4382
:1009F000BA691340BB613B685B6803F48033002B2A
:100A000003D0BA693B691343BB61314ABB691360C8
:100A10002F4B5B68BB613B69DB43BA691340BB6129
:100A20003B685B6803F40033002B03D0BA693B6971
:100A30001343BB61264ABB695360254B9B68BB616E
:100A40003B69DB43BA691340BB613B685B6803F4F5
:100A50008013002B03D0BA693B691343BB611C4A66
:100A6000BB6993601A4BDB68BB613B69DB43BA69C6
:100A70001340BB613B685B6803F40013002B03D099
:100A8000BA693B691343BB61114ABB69D360FB6917
:100A90000133FB61FB690F2B7FF690AE00BF24375B
:100AA000BD465DF8047B70470038024000380140C5
:100AB000000002400004024000080240000C024016
:100AC000001002400014024000180240001C0240C6
:100AD000003C014080B483B000AF78600B467B805F
:100AE00013467B707B78002B03D07A887B689A61F1
:100AF00003E07B881A047B689A6100BF0C37BD460F
:100B00005DF8047B704780B483B000AF78600B461B
:100B10007B807B685A697B881A407B889A4204D123
:100B20007B881A047B689A6102E07A887B689A6104
:100B300000BF0C37BD465DF8047B7047F0B58FB041
:100B40000AAF78607B68002B01D1012354E07B68F9
:100B50001B68FB607B6893F8B932DBB2002B06D1CF
:100B60007B68002283F8B82278680AF01FFC7B6853
:100B7000032283F8B922FB68DB6B03F48073002B3C
:100B800002D17B6800221A617B681B68184603F05B
:100B900093FC7B681B683B607E686D4606F1100421
:100BA0000FCC0FC50FCC0FC594E8030085E80300F8
:100BB000331D0ECB386803F00DFC7B681B680121E8
:100BC000184603F08AFC7B681B683B607E686D46B4
:100BD00006F110040FCC0FC50FCC0FC594E803002D
:100BE00085E80300331D0ECB386803F09DFD7B685C
:100BF000012283F8B922002318461437BD46F0BD00
:100C000090B589B004AF7860084611461A4603468D
:100C1000FB700B46BB7013467B707B6893F8B83251
:100C2000012B01D102237FE07B68012283F8B822E7
:100C3000FA78796813469B001344DB000B443D337C
:100C400000221A70FA78796813469B001344DB007F
:100C50000B4438337A781A70FA78796813469B0017
:100C60001344DB000B4440333A8D1A80FA787968DC
:100C700013469B001344DB000B443933FA781A7097
:100C8000FA78796813469B001344DB000B443F332A
:100C900097F824201A70FA78BB7803F07F03D8B253
:100CA000796813469B001344DB000B443A33024639
:100CB0001A7097F90230002B0ADAFA78796813462D
:100CC0009B001344DB000B443B3301221A7009E004
:100CD000FA78796813469B001344DB000B443B33DE
:100CE00000221A70FA78796813469B001344DB00DF
:100CF0000B443C3397F820201A707B6818687C7886
:100D0000BA78F9783B8D029397F82430019397F8DD
:100D100020300093234603F089FE0346FB737B6873
:100D2000002283F8B822FB7B18461437BD4690BDDD
:100D300080B584B000AF78600B46FB700023FB7376
:100D40007B6893F8B832012B01D102230FE07B6856
:100D5000012283F8B8227B681B68FA78114618468E
:100D600004F0C3F87B68002283F8B822FB7B1846A6
:100D70001037BD4680BD000080B582B000AF7860FE
:100D8000084611461A460346FB700B46BB701346D5
:100D90007B70FA78796813469B001344DB000B44A0
:100DA0003B33BA781A70FA78796813469B0013447B
:100DB000DB000B443F337A781A703B7C002B14D154
:100DC000FA78796813469B001344DB000B444233E6
:100DD00003221A70FA78796813469B001344DB00EB
:100DE0000B443D333A7F1A7009E0FA78796813466C
:100DF0009B001344DB000B44423302221A707B78C1
:100E0000032B00F2D68001A252F823F01D0E000839
:100E10009D0F0008890E0008130F00083B7C012B72
:100E200040F0C980BB78002B40F0C5803B8B002B85
:100E300009D1FA78796813469B001344DB000B4410
:100E4000513301221A70FA78796813469B001344D3
:100E5000DB000B4451331B78002B0AD1FA787968F8
:100E600013469B001344DB000B44423300221A70EC
:100E7000A1E0FA78796813469B001344DB000B4429
:100E8000423302221A7096E0BB78002B20D1FA7808
:100E9000796813469B001344DB000B4451331B78E5
:100EA000002B0AD1FA78796813469B001344DB00C3
:100EB0000B44423300221A707EE0FA7879681346B8
:100EC0009B001344DB000B44423302221A7073E090
:100ED000FA78796813469B001344DB000B445033C7
:100EE0001B78002B0AD1FA78796813469B001344CB
:100EF000DB000B44423300221A705DE0FA78796817
:100F000013469B001344DB000B44423302221A7049
:100F100052E0BB78002B20D1FA78796813469B0009
:100F20001344DB000B4451331B78002B0AD1FA78B1
:100F3000796813469B001344DB000B4442330022C4
:100F40001A7039E0FA78796813469B001344DB0085
:100F50000B44423302221A702EE0FA787968134665
:100F60009B001344DB000B4450331B78002B0AD149
:100F7000FA78796813469B001344DB000B44423334
:100F800000221A7018E0FA78796813469B0013441F
:100F9000DB000B44423302221A700DE0FA787968C4
:100FA00013469B001344DB000B44423300221A70AB
:100FB00002E000BF00E000BFFA78796813469B00AA
:100FC0001344DB000B4444337A691A60FA78398B96
:100FD000786813469B001344DB00034448331960D0
:100FE000FA78796813469B001344DB000B445C33AA
:100FF00000221A70FA78796813469B001344DB00CC
:101000000B444C3300221A60FA78796813469B002F
:101010001344DB000B443933FA781A70FA78796894
:1010200013469B001344DB000B445D3300221A700F
:101030007B681868FA7813469B001344DB0038334A
:101040007A68D1187B681B69DBB21A4603F0F8FD99
:10105000034618460837BD4680BD00BF80B586B040
:1010600000AF78607B681B683B613B69FB607B6815
:101070001B68184603F015FB0346012B40F0EF8078
:101080007B681B68184603F0F9FA0346002B00F052
:10109000E5807B681B68184603F0F0FA034603F40A
:1010A0000013B3F5001F04D17B681B684FF40012D6
:1010B0005A617B681B68184603F0E0FA034603F4A4
:1010C0008013B3F5801F04D17B681B684FF4801236
:1010D0005A617B681B68184603F0D0FA034603F098
:1010E0008063B3F1806F04D17B681B684FF080622E
:1010F0005A617B681B68184603F0C0FA034603F088
:101100000203022B03D17B681B6802225A617B68B1
:101110001B68184603F0B2FA034603F00053B3F11C
:10112000005F15D17B681B684FF000525A61FB6865
:1011300003F588631B6803F00103002B08D178686E
:101140000AF0B2F97B681B680121184603F0A8FB7E
:101150007B681B68184603F091FA034603F080731E
:10116000B3F1807F02D1786801F066F97B681B6873
:10117000184603F083FA034603F00803082B06D150
:1011800078680AF075F97B681B6808225A617B68E9
:101190001B68184603F072FA034603F00073B3F1BC
:1011A000007F38D17B681B68184603F08DFEB8605D
:1011B00000237B6125E07B6903F00F03BA6822FA04
:1011C00003F303F00103002B18D07B695A01FB687D
:1011D000134403F5A0631B6803F40043B3F5004F09
:1011E00006D17B69DBB21946786800F0CFF805E0DC
:1011F0007B69DBB21946786800F0FDFC7B6901333E
:101200007B617B689B687A699A42D4D37B681B6850
:101210004FF000725A617B681B68184603F02EFA83
:10122000034603F01003102B01D1012300E000233B
:10123000002B14D07B681B689A697B681B6822F0BE
:1012400010029A61786801F04BF87B681B689A6914
:101250007B681B6842F010029A6100E000BF1837FB
:10126000BD4680BD80B582B000AF78607B6893F8E2
:10127000B832012B01D1022313E07B68012283F8ED
:10128000B8227B681B68184603F005F97B681B6869
:101290000121184603F068FB7B68002283F8B8221E
:1012A000002318460837BD4680BD80B582B000AF28
:1012B00078607B6893F8B832012B01D102230DE0EE
:1012C0007B68012283F8B8227B681B68184603F00C
:1012D00047FF7B68002283F8B822002318460837AE
:1012E000BD4680BD80B582B000AF78607B681B686A
:1012F000184603F00FFB034618460837BD4680BD6D
:1013000080B483B000AF78600B46FB70FA787968E0
:1013100013469B001344DB000B445C331B781846D8
:101320000C37BD465DF8047B704780B483B000AFD6
:1013300078600B46FB70FA78796813469B0013447B
:10134000DB000B444C331B6818460C37BD465DF878
:10135000047B704780B582B000AF78607B681B6803
:10136000184603F051FB034618460837BD4680BDBA
:1013700080B582B000AF78607B681B68184603F0C8
:101380002CFB034618460837BD4680BD80B586B0A5
:1013900000AF78600B46FB707B681B687B617B69E4
:1013A0003B61FB78FB60FB685A013B69134403F522
:1013B000A0639B6803F00403042B19D1FB685A0156
:1013C0003B69134403F5A0631A4604239360FB684A
:1013D0005A013B69134403F5A063DB68FA685101C5
:1013E0003A690A4402F5A06243F00203D360CEE0FA
:1013F000FB685A013B69134403F5A0639B6803F43F
:101400008073B3F5807F2CD1FB685A013B6913448C
:1014100003F5A0631A464FF4807393607968FA6805
:1014200013469B001344DB000B445D3307221A7004
:10143000FB685A013B69134403F5A063DB68FA6853
:1014400051013A690A4402F5A06243F00203D360F5
:101450007B681B68FA68D2B21146184603F045FD56
:1014600095E0FB685A013B69134403F5A0639B6850
:1014700003F02003202B09D1FB685A013B69134478
:1014800003F5A0631A462023936080E0FB685A01AD
:101490003B69134403F5A0639B6803F00803082B22
:1014A00034D1FB685A013B69134403F5A063DB6840
:1014B000FA6851013A690A4402F5A06243F0020356
:1014C000D3607968FA6813469B001344DB000B4431
:1014D0005D3305221A70FB685A013B69134403F51A
:1014E000A0631A4610239360FB685A013B691344BA
:1014F00003F5A0631A46082393607B681B68FA68AB
:10150000D2B21146184603F0F0FC40E0FB685A01E5
:101510003B69134403F5A0639B6803F48063B3F550
:10152000806F34D1FB685A013B69134403F5A06313
:10153000DB68FA6851013A690A4402F5A06243F097
:101540000203D3607B681B68FA68D2B21146184662
:1015500003F0CBFCFB685A013B69134403F5A0631D
:101560001A46102393607968FA6813469B00134467
:10157000DB000B445D3308221A70FB685A013B699B
:10158000134403F5A0631A464FF480639360FB682D
:101590005A013B69134403F5A0639B6803F400738D
:1015A000B3F5007F22D1FB685A013B69134403F570
:1015B000A063DB68FA6851013A690A4402F5A06247
:1015C00043F00203D3607B681B68FA68D2B211460D
:1015D000184603F08AFCFB685A013B69134403F583
:1015E000A0631A464FF40073936000E3FB685A014E
:1015F0003B69134403F5A0639B6803F00103012BCF
:1016000040F0FD807B681B69002B1BD07968FA686D
:1016100013469B001344DB000B4448331A68FB68F5
:1016200059013B690B4403F5A0631B69C3F3120323
:10163000D11A7868FA6813469B001344DB00034410
:101640004C3319607968FA6813469B001344DB0039
:101650000B445D3301221A707968FA6813469B00C7
:101660001344DB000B44583300221A60FB685A0114
:101670003B69134403F5A0631A460123936079681C
:10168000FA6813469B001344DB000B443F331B787E
:10169000002B0AD07968FA6813469B001344DB00DC
:1016A0000B443F331B78022B21D1FB685A013B6965
:1016B000134403F5A063DB68FA6851013A690A44F0
:1016C00002F5A06243F00203D3607B681B68FA68EE
:1016D000D2B21146184603F008FCFB685A013B6978
:1016E000134403F5A0631A461023936070E07968F1
:1016F000FA6813469B001344DB000B443F331B780E
:10170000032B2AD1FB685A013B69134403F5A063FC
:101710001B68FA6851013A690A4402F5A06243F075
:10172000005313607968FA6813469B001344DB008A
:101730000B445C3301221A70FB68D8B27968FA68EE
:1017400013469B001344DB000B445C331B781A46A2
:101750000146786809F0B6FE3AE07968FA681346FF
:101760009B001344DB000B443F331B78012B2FD12C
:101770007968FA6813469B001344DB000B445C3322
:1017800001221A707968FA6813469B001344DB0043
:101790000B4450331B7883F00103D8B27968FA68A0
:1017A00013469B001344DB000B44503302461A706F
:1017B000FB68D8B27968FA6813469B001344DB00D3
:1017C0000B445C331B781A460146786809F07AFEB0
:1017D0007968FA6813469B001344DB000B445033CE
:1017E0001B7883F00103D8B27968FA6813469B002E
:1017F0001344DB000B44503302461A70F7E1FB68D8
:101800005A013B69134403F5A0639B6803F002038C
:10181000022B40F01A81FB685A013B69134403F51F
:10182000A063DB68FA6851013A690A4402F5A062D4
:1018300023F00203D3607968FA6813469B001344CF
:10184000DB000B445D331B78012B0AD17968FA6801
:1018500013469B001344DB000B445C3301221A70D7
:10186000D9E07968FA6813469B001344DB000B4407
:101870005D331B78052B0AD17968FA6813469B0003
:101880001344DB000B445C3305221A70C3E0796813
:10189000FA6813469B001344DB000B445D331B784E
:1018A000062B0AD07968FA6813469B001344DB00C4
:1018B0000B445D331B78082B56D17968FA681346C0
:1018C0009B001344DB000B4458331B68591C786899
:1018D000FA6813469B001344DB0003445833196035
:1018E0007968FA6813469B001344DB000B445833B5
:1018F0001B68032B14D97968FA6813469B001344BC
:10190000DB000B44583300221A607968FA681346EA
:101910009B001344DB000B445C3304221A7009E083
:101920007968FA6813469B001344DB000B445C3370
:1019300002221A70FB685A013B69134403F5A06345
:101940001B68BB60BB6823F08043BB60BB6843F08F
:101950000043BB60FB685A013B69134403F5A06375
:101960001A46BB68136056E07968FA6813469B0014
:101970001344DB000B445D331B78032B23D17968C0
:10198000FA6813469B001344DB000B445C330222CD
:101990001A70FB685A013B69134403F5A0631B6886
:1019A000BB60BB6823F08043BB60BB6843F000436F
:1019B000BB60FB685A013B69134403F5A0631A46F8
:1019C000BB68136027E07968FA6813469B001344EC
:1019D000DB000B445D331B78072B1CD17968FA6858
:1019E00013469B001344DB000B4458331B68591CFF
:1019F0007868FA6813469B001344DB0003445833AD
:101A000019607968FA6813469B001344DB000B44A5
:101A10005C3304221A70FB685A013B69134403F5D6
:101A2000A0631A4602239360FB68D8B27968FA680B
:101A300013469B001344DB000B445C331B781A46AF
:101A40000146786809F03EFDD1E0FB685A013B6928
:101A5000134403F5A0639B6803F08003802B3ED101
:101A6000FB685A013B69134403F5A063DB68FA681D
:101A700051013A690A4402F5A06243F00203D360BF
:101A80007968FA6813469B001344DB000B44583313
:101A90001B68591C7868FA6813469B001344DB00E6
:101AA0000344583319607968FA6813469B0013445D
:101AB000DB000B445D3306221A707B681B68FA68F2
:101AC000D2B21146184603F010FAFB685A013B697E
:101AD000134403F5A0631A468023936087E0FB68F4
:101AE0005A013B69134403F5A0639B6803F010039C
:101AF000102B7CD17968FA6813469B001344DB00F5
:101B00000B443F331B78032B22D17968FA681346C4
:101B10009B001344DB000B44583300221A60FB681F
:101B20005A013B69134403F5A063DB68FA6851016D
:101B30003A690A4402F5A06243F00203D3607B686D
:101B40001B68FA68D2B21146184603F0CEF945E098
:101B50007968FA6813469B001344DB000B443F335B
:101B60001B78002B0AD07968FA6813469B0013444F
:101B7000DB000B443F331B78022B2FD17968FA68C6
:101B800013469B001344DB000B44583300221A60B9
:101B90007B681B69002B21D17968FA6813469B008A
:101BA0001344DB000B445D3303221A70FB685A01B7
:101BB0003B69134403F5A063DB68FA6851013A6995
:101BC0000A4402F5A06243F00203D3607B681B68FD
:101BD000FA68D2B21146184603F087F9FB685A0139
:101BE0003B69134403F5A0631A461023936000BFBA
:101BF0001837BD4680BD80B586B000AF78600B4613
:101C0000FB707B681B687B617B693B61FB78FB60D9
:101C1000FB685A013B69134403F5A0639B6803F01A
:101C20000403042B19D1FB685A013B69134403F5E3
:101C3000A0631A4604239360FB685A013B6913446E
:101C400003F5A063DB68FA6851013A690A4402F5BA
:101C5000A06243F00203D3603EE3FB685A013B6994
:101C6000134403F5A0639B6803F02003202B41D1AC
:101C7000FB685A013B69134403F5A0631A4620230D
:101C800093607968FA6813469B001344DB000B44A9
:101C90003D331B78012B40F01F837968FA681346A7
:101CA0009B001344DB000B443D3300221A7079681B
:101CB000FA6813469B001344DB000B445C3302229A
:101CC0001A70FB685A013B69134403F5A063DB6893
:101CD000FA6851013A690A4402F5A06243F002032E
:101CE000D3607B681B68FA68D2B21146184603F0CD
:101CF000FCF8F1E2FB685A013B69134403F5A06369
:101D00009B6803F04003402B3FD17968FA68134683
:101D10009B001344DB000B445D3304221A70796886
:101D2000FA6813469B001344DB000B443D33012249
:101D30001A707968FA6813469B001344DB000B4461
:101D4000583300221A60FB685A013B69134403F5BB
:101D5000A063DB68FA6851013A690A4402F5A0629F
:101D600043F00203D3607B681B68FA68D2B2114665
:101D7000184603F0BAF8FB685A013B69134403F5AF
:101D8000A0631A4640239360A6E2FB685A013B69B0
:101D9000134403F5A0639B6803F40073B3F5007F5D
:101DA00022D1FB685A013B69134403F5A063DB6849
:101DB000FA6851013A690A4402F5A06243F002034D
:101DC000D3607B681B68FA68D2B21146184603F0EC
:101DD0008CF8FB685A013B69134403F5A0631A466B
:101DE0004FF40073936077E2FB685A013B69134438
:101DF00003F5A0639B6803F00103012B35D17968DB
:101E0000FA6813469B001344DB000B44583300224E
:101E10001A60FB685A013B69134403F5A063DB6851
:101E2000FA6851013A690A4402F5A06243F00203DC
:101E3000D3607B681B68FA68D2B21146184603F07B
:101E400054F8FB685A013B69134403F5A0631A4632
:101E5000012393607968FA6813469B001344DB0002
:101E60000B445D3301221A7036E2FB685A013B696C
:101E7000134403F5A0639B6803F00803082B2BD1E0
:101E8000FB685A013B69134403F5A0631A46082313
:101E90009360FB685A013B69134403F5A063DB6858
:101EA000FA6851013A690A4402F5A06243F002035C
:101EB000D3607B681B68FA68D2B21146184603F0FB
:101EC00014F87968FA6813469B001344DB000B444E
:101ED0005D3305221A70FFE1FB685A013B69134428
:101EE00003F5A0639B6803F01003102B55D17968AC
:101EF000FA6813469B001344DB000B44583300225E
:101F00001A607968FA6813469B001344DB000B449F
:101F10005D3303221A707968FA6813469B001344F4
:101F2000DB000B443D331B78002B14D17968FA6831
:101F300013469B001344DB000B443C331B78002BFF
:101F400009D17968FA6813469B001344DB000B44FF
:101F50003D3301221A70FB685A013B69134403F5B3
:101F6000A063DB68FA6851013A690A4402F5A0628D
:101F700043F00203D3607B681B68FA68D2B2114653
:101F8000184602F0B2FFFB685A013B69134403F59F
:101F9000A0631A46102393609EE1FB685A013B69D7
:101FA000134403F5A0639B6803F08003802B2BD1BF
:101FB000FB685A013B69134403F5A063DB68FA68C8
:101FC00051013A690A4402F5A06243F00203D3606A
:101FD0007B681B68FA68D2B21146184602F085FF8A
:101FE0007968FA6813469B001344DB000B445D33A9
:101FF00006221A70FB685A013B69134403F5A0637B
:102000001A468023936067E1FB685A013B691344D9
:1020100003F5A0639B6803F48063B3F5806F35D14B
:10202000FB685A013B69134403F5A063DB68FA6857
:1020300051013A690A4402F5A06243F00203D360F9
:102040007B681B68FA68D2B21146184602F04DFF51
:10205000FB685A013B69134403F5A0631A46102339
:102060009360FB685A013B69134403F5A0631A4669
:102070004FF4806393607968FA6813469B001344B9
:10208000DB000B445D3308221A7025E1FB685A011E
:102090003B69134403F5A0639B6803F00203022B22
:1020A00040F01A81FB685A013B69134403F5A063B1
:1020B000DB68FA6851013A690A4402F5A06223F02C
:1020C0000203D3607968FA6813469B001344DB006F
:1020D0000B445D331B78012B37D17968FA681346BE
:1020E0009B001344DB000B445C3301221A707968B7
:1020F000FA6813469B001344DB000B443F331B7804
:10210000022B0BD07968FA6813469B001344DB005E
:102110000B443F331B78032B40F0C5807968FA6885
:1021200013469B001344DB000B4451331B7883F0B0
:102130000103D8B27968FA6813469B001344DB00A8
:102140000B44513302461A70ADE07968FA681346C1
:102150009B001344DB000B445D331B78032B0AD137
:102160007968FA6813469B001344DB000B445C3328
:1021700002221A7097E07968FA6813469B001344AC
:10218000DB000B445D331B78042B0AD17968FA68B5
:1021900013469B001344DB000B445C3302221A708D
:1021A00081E07968FA6813469B001344DB000B4416
:1021B0005D331B78052B0AD17968FA6813469B00BA
:1021C0001344DB000B445C3305221A706BE0796822
:1021D000FA6813469B001344DB000B445D331B7805
:1021E000062B0AD07968FA6813469B001344DB007B
:1021F0000B445D331B78082B55D17968FA68134678
:102200009B001344DB000B4458331B68591C78684F
:10221000FA6813469B001344DB00034458331960EB
:102220007968FA6813469B001344DB000B4458336B
:102230001B68032B14D97968FA6813469B00134472
:10224000DB000B44583300221A607968FA681346A1
:102250009B001344DB000B445C3304221A7009E03A
:102260007968FA6813469B001344DB000B445C3327
:1022700002221A70FB685A013B69134403F5A063FC
:102280001B68BB60BB6823F08043BB60BB6843F046
:102290000043BB60FB685A013B69134403F5A0632C
:1022A0001A46BB681360FB685A013B69134403F587
:1022B000A0631A4602239360FB68D8B27968FA6873
:1022C00013469B001344DB000B445C331B781A4617
:1022D0000146786809F0F6F800BF1837BD4680BDA2
:1022E00080B58AB000AF78607B681B687B627B6AD0
:1022F0003B627B681B681B6AFB61FB6903F00F0391
:10230000BB61FB695B0C03F00F037B61FB691B097D
:10231000C3F30A033B617B69022B03D0052B00F05A
:10232000828083E03B69002B7FD07968BA691346CD
:102330009B001344DB000B4444331B68002B74D018
:102340007B6818687968BA6913469B001344DB0000
:102350000B4444331B683A6992B2194602F065F99E
:102360007968BA6913469B001344DB000B4444337D
:102370001A683B69D1187868BA6913469B00134400
:10238000DB000344443319607968BA6913469B0043
:102390001344DB000B444C331A683B69D11878684E
:1023A000BA6913469B001344DB0003444C331960A5
:1023B000BB695A013B6A134403F5A0631A691D4BBC
:1023C0001340002B31D0BB695A013B6A134403F51B
:1023D000A0631B68FB60FB6823F08043FB60FB6825
:1023E00043F00043FB60BB695A013B6A134403F5A9
:1023F000A0631A46FB6813607968BA6913469B00AC
:102400001344DB000B4450331B7883F00103D8B234
:102410007968BA6913469B001344DB000B445033C0
:1024200002461A7001E000BF00E000BF00BF28377D
:10243000BD4680BD0000F81F80B586B000AF786053
:102440007B681B687B617B693B613B6903F5886343
:102450001B68FB603B6903F588631B68BB60BB6856
:1024600023F02E03BB60FB6803F00203022B0BD1A9
:10247000FB6803F00103012B02D1786809F006F82C
:10248000BB6843F00203BB60FB6803F00803082B42
:1024900032D1BB6843F00803BB60FB6803F0040360
:1024A000042B26D17B689B69022B13D1FB6803F4B4
:1024B000C023B3F5802F06D17B681B680221184624
:1024C00002F0EEF911E07B681B680121184602F06A
:1024D000E7F90AE07B68DB68012B06D13B6903F56D
:1024E00080631A464EF660235360786808F0FCFF5C
:1024F00002E0786809F006F8FB6803F02003202B5F
:1025000003D1BB6843F02003BB603B6903F58863DC
:102510001A46BB68136000BF1837BD4680BD000077
:1025200080B584B000AF78607B68002B01D10123B7
:102530001FE17B6893F83D30DBB2002B06D17B684E
:10254000002283F83C20786808F096FC7B682422FF
:1025500083F83D207B681B681A687B681B6822F043
:1025600001021A607B681B681A687B681B6842F46A
:1025700000421A607B681B681A687B681B6822F43B
:1025800000421A6000F03EFDF8607B685B687B4AA1
:10259000934207D8FB687A4A934294BF01230023F1
:1025A000DBB206E0FB68774A934294BF0123002325
:1025B000DBB2002B01D00123DBE0FB68724AA2FBF7
:1025C00003239B0CBB607B681B685B6823F03F01A7
:1025D0007B681B68BA680A435A607B681B681B6A81
:1025E00023F03F017B685B68644A934202D8BB6872
:1025F000013309E0BB684FF4967202FB03F3634AB0
:10260000A2FB03239B0901337A6812680B43136210
:102610007B681B68DB6923F44F4222F0FF027B6872
:102620005B6856498B420DD8FB68591E7B685B6816
:102630005B00B1FBF3F30133C3F30B03042B38BF8F
:1026400004234FE07B689B68002B11D1FB68581E68
:102650007B6859680B465B000B44B0FBF3F3013316
:10266000C3F30B03002B0CBF01230023DBB212E0EA
:10267000FB68581E7B6859680B469B000B44990009
:102680000B44B0FBF3F30133C3F30B03002B0CBF7C
:1026900001230023DBB2002B01D0012322E07B6861
:1026A0009B68002B0ED1FB68581E7B6859680B464F
:1026B0005B000B44B0FBF3F30133C3F30B0343F4B0
:1026C00000430FE0FB68581E7B6859680B469B006F
:1026D0000B4499000B44B0FBF3F30133C3F30B033A
:1026E00043F44043796809681343CB617B681B68F6
:1026F0001B6823F0C0017B68DA697B681B6A1A4398
:102700007B681B680A431A607B681B689B6823F41C
:10271000034323F0FF037A6811697A68D268114392
:102720007A6812680B4393607B681B68DB6823F050
:10273000FF017B685A697B689B691A437B681B6849
:102740000A43DA607B681B681A687B681B6842F082
:1027500001021A607B6800221A647B68202283F8D9
:102760003D207B6800221A637B68002283F83E20AC
:10277000002318461037BD4680BD00BFA08601006B
:102780007F841E00FF083D0083DE1B43D34D621093
:1027900080B586B000AF78607B68002B01D1012343
:1027A0005BE27B681B6803F00103002B75D0A34B31
:1027B0009B6803F00C03042B0CD0A04B9B6803F028
:1027C0000C03082B12D19D4B5B6803F48003B3F517
:1027D000800F0BD1994B1B6803F40033002B5BD0A7
:1027E0007B685B68002B57D1012336E27B685B680E
:1027F000B3F5803F06D1914B1B68904A43F4803378
:1028000013601DE07B685B68B3F5A02F0CD18B4B88
:102810001B688A4A43F480231360884B1B68874AED
:1028200043F4803313600BE0844B1B68834A23F42A
:1028300080331360814B1B68804A23F4802313602C
:102840007B685B68002B13D0FDF778FE386108E0E9
:10285000FDF774FE02463B69D31A642B01D90323AA
:10286000FBE1764B1B6803F40033002BF0D014E03F
:10287000FDF764FE386108E0FDF760FE02463B6943
:10288000D31A642B01D90323E7E16C4B1B6803F4D3
:102890000033002BF0D100E000BF7B681B6803F021
:1028A0000203002B63D0654B9B6803F00C03002BE5
:1028B0000BD0624B9B6803F00C03082B1CD15F4BC1
:1028C0005B6803F48003002B16D15C4B1B6803F09C
:1028D0000203002B05D07B68DB68012B01D00123AC
:1028E000BBE1564B1B6823F0F8027B681B69DB00D9
:1028F000524913430B603AE07B68DB68002B20D021
:102900004F4B01221A60FDF719FE386108E0FDF710
:1029100015FE02463B69D31A022B01D903239CE121
:10292000464B1B6803F00203002BF0D0434B1B689F
:1029300023F0F8027B681B69DB00404913430B60FE
:1029400015E03F4B00221A60FDF7F8FD386108E002
:10295000FDF7F4FD02463B69D31A022B01D903238C
:102960007BE1364B1B6803F00203002BF0D17B6840
:102970001B6803F00803002B30D07B685B69002BD9
:1029800016D0304B01221A60FDF7D8FD386108E0FF
:10299000FDF7D4FD02463B69D31A022B01D903236C
:1029A0005BE1264B5B6F03F00203002BF0D015E0D8
:1029B000244B00221A60FDF7C1FD386108E0FDF7E5
:1029C000BDFD02463B69D31A022B01D9032344E122
:1029D0001A4B5B6F03F00203002BF0D17B681B687E
:1029E00003F00403002B00F0A0800023FB75134BC1
:1029F0001B6C03F08053002B0FD10023BB600F4BE7
:102A00001B6C0E4A43F0805313640C4B1B6C03F099
:102A10008053BB60BB680123FB750B4B1B6803F441
:102A20008073002B21D1084B1B68074A43F4807345
:102A30001360FDF783FD386111E000BF00380240EC
:102A400000004742800E474200700040FDF776FDCF
:102A500002463B69D31A022B01D90323FDE0814BC7
:102A60001B6803F48073002BF0D07B689B68012BFC
:102A700006D17D4B1B6F7C4A43F0010313671CE0BA
:102A80007B689B68052B0CD1774B1B6F764A43F014
:102A900004031367744B1B6F734A43F001031367FE
:102AA0000BE0714B1B6F704A23F0010313676E4BF1
:102AB0001B6F6D4A23F0040313677B689B68002B30
:102AC00015D0FDF73BFD38610AE0FDF737FD024602
:102AD0003B69D31A41F28832934201D90323BCE007
:102AE000614B1B6F03F00203002BEED014E0FDF7E7
:102AF00025FD38610AE0FDF721FD02463B69D31A46
:102B000041F28832934201D90323A6E0564B1B6F52
:102B100003F00203002BEED1FB7D012B05D1524BBC
:102B20001B6C514A23F0805313647B689B69002B14
:102B300000F092804C4B9B6803F00C03082B5CD098
:102B40007B689B69022B41D1484B00221A60FDF73C
:102B5000F5FC386108E0FDF7F1FC02463B69D31A49
:102B6000022B01D9032378E03F4B1B6803F000736D
:102B7000002BF0D17B68DA697B681B6A1A437B689B
:102B80005B6A9B011A437B689B6A5B08013B1B04E1
:102B90001A437B68DB6A1B06334913434B60334B94
:102BA00001221A60FDF7CAFC386108E0FDF7C6FC97
:102BB00002463B69D31A022B01D903234DE02A4B6D
:102BC0001B6803F00073002BF0D045E0274B002278
:102BD0001A60FDF7B3FC386108E0FDF7AFFC024670
:102BE0003B69D31A022B01D9032336E01E4B1B6825
:102BF00003F00073002BF0D12EE07B689B69012B62
:102C000001D1012329E0184B5B68FB60FB6803F4EA
:102C100080027B68DB699A421CD1FB6803F03F02AB
:102C20007B681B6A9A4215D1FA6847F6C073134055
:102C30007A68526A93420DD1FB6803F440327B6894
:102C40009B6A9A4206D1FB6803F070627B68DB6A7C
:102C50009A4201D0012300E0002318461837BD46F0
:102C600080BD00BF00700040003802406000474255
:102C700080B584B000AF786039607B68002B01D1EB
:102C80000123CCE0684B1B6803F00F033A689A42BB
:102C90000CD9654B3A68D2B21A70634B1B6803F0CB
:102CA0000F033A689A4201D00123B8E07B681B68A1
:102CB00003F00203002B20D07B681B6803F00403A1
:102CC000002B05D0594B9B68584A43F4E05393605E
:102CD0007B681B6803F00803002B05D0534B9B68EF
:102CE000524A43F460439360504B9B6823F0F002D8
:102CF0007B689B684D4913438B607B681B6803F0BE
:102D00000103002B44D07B685B68012B07D1474B44
:102D10001B6803F40033002B19D101237FE07B688B
:102D20005B68022B03D07B685B68032B07D13F4BAA
:102D30001B6803F00073002B09D101236FE03B4BAC
:102D40001B6803F00203002B01D1012367E0374B1E
:102D50009B6823F003027B685B68344913438B60F4
:102D6000FDF7ECFBF8600AE0FDF7E8FB0246FB68C4
:102D7000D31A41F28832934201D903234FE02B4BFF
:102D80009B6803F00C027B685B689B009A42EBD166
:102D9000254B1B6803F00F033A689A420CD2224B72
:102DA0003A68D2B21A70204B1B6803F00F033A68DE
:102DB0009A4201D0012332E07B681B6803F00403D0
:102DC000002B08D0194B9B6823F4E0527B68DB682A
:102DD000164913438B607B681B6803F00803002BC4
:102DE00009D0124B9B6823F460427B681B69DB00AF
:102DF0000E4913438B6000F021F801460B4B9B6892
:102E00001B0903F00F030A4AD35C21FA03F3094AB2
:102E10001360094B1B68184608F08AF9002318460E
:102E20001037BD4680BD00BF003C02400038024064
:102E300094BD00082C00002000000020F0B585B0F3
:102E400000AF00237B600023FB6000233B60002376
:102E5000BB60634B9B6803F00C03042B07D0082B6B
:102E600008D0002B40F0B4805E4BBB60B3E05E4BFB
:102E7000BB60B0E05A4B5B6803F03F037B60584B8C
:102E80005B6803F48003002B4AD0554B5B689B09B9
:102E90004FF0000440F2FF114FF0000203EA010579
:102EA00004EA0206294632464FF000034FF00004C0
:102EB000540144EAD1644B0119462246491B62EB96
:102EC00006024FF000034FF00004940144EA9164BD
:102ED0008B015B1A64EB02044FF000014FF000021B
:102EE000E20042EA5372D9000B4614465B1944EBE8
:102EF00006044FF000014FF00002620242EAD35292
:102F000059020B461446184621467B684FF00004D0
:102F10001A462346FDF75CF903460C46FB6049E080
:102F20002F4B5B689B094FF0000440F2FF114FF0FC
:102F3000000203EA010504EA0206294632464FF080
:102F400000034FF00004540144EAD1644B011946D8
:102F50002246491B62EB06024FF000034FF00004CB
:102F6000940144EA91648B015B1A64EB02044FF014
:102F700000014FF00002E20042EA5372D9000B4612
:102F800014465B1944EB06044FF000014FF00002B9
:102F9000A20242EA935299020B4614461846214671
:102FA0007B684FF000041A462346FDF711F90346EB
:102FB0000C46FB600A4B5B681B0C03F003030133F8
:102FC0005B003B60FA683B68B2FBF3F3BB6002E076
:102FD000044BBB6000BFBB6818461437BD46F0BD4C
:102FE000003802400024F40000127A0080B400AFE0
:102FF000034B1B681846BD465DF8047B704700BF55
:103000002C00002080B500AFFFF7F0FF0146054B14
:103010009B689B0A03F00703034AD35C21FA03F37E
:10302000184680BD00380240A4BD000880B500AF3E
:10303000FFF7DCFF0146054B9B685B0B03F00703C2
:10304000034AD35C21FA03F3184680BD00380240DE
:10305000A4BD000880B483B000AF786039607B689D
:103060000F221A60124B9B6803F003027B685A60C0
:103070000F4B9B6803F0F0027B689A600C4B9B68D7
:1030800003F4E0527B68DA60094B9B68DB0803F4C9
:10309000E0527B681A61074B1B6803F00F023B6824
:1030A0001A6000BF0C37BD465DF8047B704700BF57
:1030B00000380240003C024080B582B000AF78602A
:1030C0007B68002B01D1012356E07B6800229A62C5
:1030D0007B6893F85130DBB2002B06D17B6800226D
:1030E00083F85020786807F00FFF7B68022283F88E
:1030F00051207B681B681A687B681B6822F04002BD
:103100001A607B685A687B689B681A437B68DB6837
:103110001A437B681B691A437B685B691A437B68A7
:103120009B6903F400731A437B68DB691A437B686D
:103130001B6A42EA03017B689A6A7B681B680A4340
:103140001A607B689B691B0C03F004017B685A6A58
:103150007B681B680A435A607B681B68DA697B6876
:103160001B6822F40062DA617B6800225A657B6882
:10317000012283F85120002318460837BD4680BD40
:1031800080B582B000AF78607B68002B01D101234D
:103190001DE07B6893F83D30DBB2002B06D17B68E5
:1031A000002283F83C20786800F015F87B68022242
:1031B00083F83D207B681A687B6804331946104603
:1031C00000F068F97B68012283F83D20002318464F
:1031D0000837BD4680BD80B483B000AF786000BFC3
:1031E0000C37BD465DF8047B704780B485B000AFF6
:1031F00078607B681B68DA687B681B6842F00102B4
:10320000DA607B681B689B6803F00703FB60FB6860
:10321000062B07D07B681B681A687B681B6842F026
:1032200001021A60002318461437BD465DF8047B7E
:10323000704780B582B000AF78607B681B681B69FF
:1032400003F00203022B22D17B681B68DB6803F0CA
:103250000203022B1BD17B681B686FF002021A610C
:103260007B6801221A777B681B689B6903F0030364
:10327000002B03D0786800F0EEF805E0786800F0E5
:10328000E0F8786800F0F1F87B6800221A777B6834
:103290001B681B6903F00403042B22D17B681B68A5
:1032A000DB6803F00403042B1BD17B681B686FF001
:1032B00004021A617B6802221A777B681B689B698B
:1032C00003F44073002B03D0786800F0C4F805E0E5
:1032D000786800F0B6F8786800F0C7F87B680022DC
:1032E0001A777B681B681B6903F00803082B22D13F
:1032F0007B681B68DB6803F00803082B1BD17B6825
:103300001B686FF008021A617B6804221A777B68D9
:103310001B68DB6903F00303002B03D0786800F01F
:103320009AF805E0786800F08CF8786800F09DF86D
:103330007B6800221A777B681B681B6903F0100307
:10334000102B22D17B681B68DB6803F01003102B65
:103350001BD17B681B686FF010021A617B68082222
:103360001A777B681B68DB6903F44073002B03D07A
:10337000786800F070F805E0786800F062F8786826
:1033800000F073F87B6800221A777B681B681B6962
:1033900003F00103012B0ED17B681B68DB6803F08F
:1033A0000103012B07D17B681B686FF001021A61D2
:1033B000786807F03DF87B681B681B6903F08003A1
:1033C000802B0ED17B681B68DB6803F08003802BA9
:1033D00007D17B681B686FF080021A61786800F083
:1033E00003F97B681B681B6903F04003402B0ED177
:1033F0007B681B68DB6803F04003402B07D17B68C8
:103400001B686FF040021A61786800F038F87B683A
:103410001B681B6903F02003202B0ED17B681B68FF
:10342000DB6803F02003202B07D17B681B686FF05B
:1034300020021A61786800F0CDF800BF0837BD4659
:1034400080BD80B483B000AF786000BF0C37BD464C
:103450005DF8047B704780B483B000AF786000BF34
:103460000C37BD465DF8047B704780B483B000AF75
:10347000786000BF0C37BD465DF8047B704780B4B0
:1034800083B000AF786000BF0C37BD465DF8047BA9
:103490007047000080B485B000AF786039607B6809
:1034A0001B68FB607B68404A934213D07B68B3F192
:1034B000804F0FD07B683D4A93420BD07B683C4ADB
:1034C000934207D07B683B4A934203D07B683A4AD9
:1034D000934208D1FB6823F07003FB603B685B6894
:1034E000FA681343FB607B682F4A93422BD07B68BA
:1034F000B3F1804F27D07B682C4A934223D07B685E
:103500002B4A93421FD07B682A4A93421BD07B6888
:10351000294A934217D07B68284A934213D07B688C
:10352000274A93420FD07B68264A93420BD07B6890
:10353000254A934207D07B68244A934203D07B6894
:10354000234A934208D1FB6823F44073FB603B6835
:10355000DB68FA681343FB60FB6823F080023B687A
:103560005B691343FB607B68FA681A603B689A6882
:103570007B68DA623B681A687B689A627B680A4AF1
:10358000934203D07B680C4A934203D13B681A698B
:103590007B681A637B6801225A6100BF1437BD46FD
:1035A0005DF8047B704700BF00000140000400404C
:1035B00000080040000C00400004014000400140B1
:1035C000004401400048014000180040001C004039
:1035D0000020004080B483B000AF786000BF0C379B
:1035E000BD465DF8047B704780B483B000AF78605F
:1035F00000BF0C37BD465DF8047B704780B582B0D4
:1036000000AF78607B68002B01D101233FE07B682D
:1036100093F83930DBB2002B06D17B68002283F8A7
:103620003820786807F0B8FC7B68242283F83920BA
:103630007B681B68DA687B681B6822F40052DA60DA
:10364000786800F04BFB7B681B681A697B681B6815
:1036500022F490421A617B681B685A697B681B6878
:1036600022F02A025A617B681B68DA687B681B6853
:1036700042F40052DA607B680022DA637B68202221
:1036800083F839207B68202283F83A2000231846EB
:103690000837BD4680BD80B588B002AFF860B9601C
:1036A0003B601346FB8000237B61FB6893F8393055
:1036B000DBB2202B40F08380BB68002B02D0FB885C
:1036C000002B01D101237BE0FB6893F83830012BFC
:1036D00001D1022374E0FB68012283F83820FB68E3
:1036E0000022DA63FB68212283F83920FCF726FFE9
:1036F0007861FB68FA889A84FB68FA88DA84FB6848
:10370000002283F8382042E0FB68DB8C9BB2013B4F
:103710009AB2FB68DA84FB689B68B3F5805F22D1BC
:103720003B6800937B6900228021F86800F06AF909
:103730000346002B01D0032342E0BB683B613B6999
:103740001B881A46FB681B68C2F308025A60FB68B4
:103750001B69002B03D1BB680233BB6017E0BB6859
:103760000133BB6013E03B6800937B69002280213A
:10377000F86800F047F90346002B01D003231FE04F
:10378000BB685A1CBA601A78FB681B685A60FB68F1
:10379000DB8C9BB2002BB7D13B6800937B69002286
:1037A0004021F86800F02EF90346002B01D00323D6
:1037B00006E0FB68202283F83920002300E0022382
:1037C00018461837BD4680BD80B588B000AF786018
:1037D0007B681B681B68FB617B681B68DB68BB61DF
:1037E0007B681B685B697B6100233B610023FB6096
:1037F000FB6903F00F033B613B69002B0DD1FB69B3
:1038000003F02003002B08D0BB6903F02003002B3A
:1038100003D0786800F0E0F9D1E03B69002B00F0BC
:10382000B0807B6903F00103002B05D1BB6903F471
:103830009073002B00F0A580FB6903F00103002BBF
:103840000AD0BB6903F48073002B05D07B68DB6B67
:1038500043F001027B68DA63FB6903F00403002B89
:103860000AD07B6903F00103002B05D07B68DB6B7A
:1038700043F002027B68DA63FB6903F00203002B6A
:103880000AD07B6903F00103002B05D07B68DB6B5A
:1038900043F004027B68DA63FB6903F00803002B42
:1038A0000FD0BB6903F02003002B04D17B6903F028
:1038B0000103002B05D07B68DB6B43F008027B68BB
:1038C000DA637B68DB6B002B78D0FB6903F02003A5
:1038D000002B07D0BB6903F02003002B02D07868CF
:1038E00000F07AF97B681B685B6903F04003402BAA
:1038F0000CBF01230023DBB2FB607B68DB6B03F0B2
:103900000803002B02D1FB68002B31D0786800F04F
:10391000C3F87B681B685B6903F04003402B23D12D
:103920007B681B685A697B681B6822F040025A61F9
:103930007B685B6B002B13D07B685B6B214A1A653D
:103940007B685B6B1846FCF709FF0346002B16D01B
:103950007B685B6B1B6D7A68526B104698470EE074
:10396000786800F045F80AE0786800F041F806E071
:10397000786800F03DF87B680022DA631EE000BF43
:103980001CE0FB6903F08003002B08D0BB6903F047
:103990008003002B03D0786800F0B0F80FE0FB69DB
:1039A00003F04003002B0AD0BB6903F04003002B57
:1039B00005D0786800F0F8F800BF00E000BF2037BD
:1039C000BD4680BDD53A000880B483B000AF7860B2
:1039D00000BF0C37BD465DF8047B704780B483B0F0
:1039E00000AF786000BF0C37BD465DF8047B7047C0
:1039F00080B483B000AF786000BF0C37BD465DF87F
:103A0000047B704780B584B000AFF860B9603B605C
:103A10001346FB712CE0BB69B3F1FF3F28D0BB69B3
:103A2000002B07D0FCF78AFD02463B68D31ABA691F
:103A30009A421DD2FB681B68DA68FB681B6822F497
:103A4000D072DA60FB681B685A69FB681B6822F059
:103A500001025A61FB68202283F83920FB6820228A
:103A600083F83A20FB68002283F8382003230FE014
:103A7000FB681B681A68BB681340BA689A420CBF9F
:103A800001230023DBB21A46FB799A42C3D00023FC
:103A900018461037BD4680BD80B483B000AF786053
:103AA0007B681B68DA687B681B6822F49072DA60B6
:103AB0007B681B685A697B681B6822F001025A61A7
:103AC0007B68202283F83A2000BF0C37BD465DF8A2
:103AD000047B704780B584B000AF78607B689B6BD7
:103AE000FB60FB680022DA85FB680022DA84F86854
:103AF000FFF77EFF00BF1037BD4680BD80B485B0A4
:103B000000AF78607B6893F83930DBB2212B44D169
:103B10007B689B68B3F5805F1AD17B681B6AFB608A
:103B2000FB681B881A467B681B68C2F308025A6050
:103B30007B681B69002B05D17B681B6A9A1C7B681C
:103B40001A620EE07B681B6A5A1C7B681A6208E0E6
:103B50007B681B6A591C7A6811621A787B681B683B
:103B60005A607B68DB8C9BB2013B9BB27A6819463A
:103B7000D184002B0FD17B681B68DA687B681B68D7
:103B800022F08002DA607B681B68DA687B681B6859
:103B900042F04002DA60002300E0022318461437A6
:103BA000BD465DF8047B704780B582B000AF786099
:103BB0007B681B68DA687B681B6822F04002DA6069
:103BC0007B68202283F839207868FFF7FDFE002308
:103BD00018460837BD4680BD80B584B000AF786018
:103BE0007B6893F83A30DBB2222B71D17B689B68FB
:103BF000B3F5805F23D17B689B6AFB607B681B69A0
:103C0000002B0ED17B681B685B689BB2C3F3080373
:103C10009AB2FB681A807B689B6A9A1C7B689A62DE
:103C200029E07B681B685B689BB2DBB29AB2FB68D9
:103C30001A807B689B6A5A1C7B689A621BE07B68CF
:103C40001B69002B0AD17B681B6858687B689B6ADC
:103C5000591C7A689162C2B21A700CE07B681B68CA
:103C60005B68DAB27B689B6A581C7968886202F0EC
:103C70007F02D2B21A707B68DB8D9BB2013B9BB294
:103C80007A681946D185002B20D17B681B68DA68D9
:103C90007B681B6822F02002DA607B681B68DA68A8
:103CA0007B681B6822F48072DA607B681B685A6943
:103CB0007B681B6822F001025A617B68202283F82E
:103CC0003A207868FFF78AFE002302E0002300E034
:103CD000022318461037BD4680BD00002DE9F04F85
:103CE00085B000AF78607B681B681B6923F4405186
:103CF0007B68DA687B681B680A431A617B689A688C
:103D00007B681B691A437B685B691A437B68DB69C4
:103D10001343FB607B681B68DB6823F4164323F0C6
:103D20000C037A681268F9680B43D3607B681B68E0
:103D30005B6923F440717B689A697B681B680A435E
:103D40005A617B68DB69B3F5004F40F08B817B687B
:103D50001B68C14A934205D07B681B68BF4A9342E7
:103D600040F0BD80FFF762F9B860BB681D464FF0B8
:103D70000006A846B14618EB080349EB090498462B
:103D8000A14618EB050849EB06094FF000014FF07A
:103D900000024FEAC90242EA58724FEAC801884657
:103DA000914618EB050049EB06017B685B681D46F0
:103DB0004FF000066B1946EB06041A462346FCF743
:103DC00007FA03460C461A46A54BA3FB02235B09E0
:103DD0004FEA0318BB681D464FF00006A946B246DD
:103DE00019EB09034AEB0A049946A24619EB0509A7
:103DF0004AEB060A4FF000014FF000024FEACA02F8
:103E000042EA59724FEAC9018946924619EB050008
:103E10004AEB06017B685B681D464FF000066B1994
:103E200046EB06041A462346FCF7D2F903460C4635
:103E30001A468B4BA3FB02135B09642101FB03F3BE
:103E4000D31ADB003233864AA2FB03235B095B00F3
:103E500003F4F8739844BB681D464FF00006A9466A
:103E6000B24619EB09034AEB0A049946A24619EB3C
:103E700005094AEB060A4FF000014FF000024FEA35
:103E8000CA0242EA59724FEAC9018946924619EBC1
:103E900005004AEB06017B685B681D464FF0000693
:103EA0006B1946EB06041A462346FCF791F90346C4
:103EB0000C461A466A4BA3FB02135B09642101FB03
:103EC00003F3D31ADB003233654AA2FB03235B09F9
:103ED00003F007027B681B6842449A606FE2FFF7B9
:103EE00091F8B860BB681D464FF00006A846B14681
:103EF00018EB080349EB09049846A14618EB05089E
:103F000049EB06094FF000014FF000024FEAC902E9
:103F100042EA58724FEAC8018846914618EB0500FC
:103F200049EB06017B685B681D464FF000066B1984
:103F300046EB06041A462346FCF74AF903460C46AC
:103F40001A46474BA3FB02235B094FEA0318BB68E1
:103F50001D464FF00006A946B24619EB09034AEB8D
:103F60000A049946A24619EB05094AEB060A4FF0E6
:103F700000014FF000024FEACA0242EA59724FEACA
:103F8000C9018946924619EB05004AEB06017B6898
:103F90005B681D464FF000066B1946EB06041A4697
:103FA0002346FCF715F903460C461A462C4BA3FB97
:103FB00002135B09642101FB03F3D31ADB003233E4
:103FC000274AA2FB03235B095B0003F4F8739844C0
:103FD000BB681D464FF00006A946B24619EB09031F
:103FE0004AEB0A049946A24619EB05094AEB060A70
:103FF0004FF000014FF000024FEACA0242EA597244
:104000004FEAC9018946924619EB05004AEB0601C1
:104010007B685B681D464FF000066B1946EB060493
:104020001A462346FCF7D4F803460C461A460C4BB6
:10403000A3FB02135B09642101FB03F3D31ADB002A
:104040003233074AA2FB03235B0903F007027B68B4
:104050001B6842449A60B2E1001001400014014024
:104060001F85EB517B681B68D74A934205D07B685C
:104070001B68D64A934240F0D180FEF7D7FFB86064
:10408000BB689A464FF0000BD046D94618EB0803A0
:1040900049EB09049846A14618EB0A0849EB0B09BD
:1040A0004FF000014FF000024FEAC90242EA587295
:1040B0004FEAC801884691461AEB08054BEB090602
:1040C0007B685B6819464FF000024FF000034FF029
:1040D0000004940044EA91748B001A462346284653
:1040E0003146FCF775F803460C461A46B84BA3FB5D
:1040F00002235B094FEA0318BB689B464FF0000C94
:10410000D946E24619EB09034AEB0A049946A2464E
:1041100019EB0B094AEB0C0A4FF000014FF00002BB
:104120004FEACA0242EA59724FEAC90189469246E9
:104130001BEB09054CEB0A067B685B6819464FF0E0
:1041400000024FF000034FF00004940044EA917421
:104150008B001A46234628463146FCF739F80346B9
:104160000C461A469A4BA3FB02135B09642101FB20
:1041700003F3D31A1B013233954AA2FB03235B09D5
:1041800003F0F0039844BB689B464FF0000CD946FF
:10419000E24619EB09034AEB0A049946A24619EBD9
:1041A0000B094AEB0C0A4FF000014FF000024FEAF6
:1041B000CA0242EA59724FEAC901894692461BEB8C
:1041C00009054CEB0A067B685B6819464FF0000254
:1041D0004FF000034FF00004940044EA91748B0008
:1041E0001A46234628463146FBF7F2FF03460C46A3
:1041F0001A46774BA3FB02135B09642101FB03F30F
:10420000D31A1B013233724AA2FB03235B0903F06A
:104210000F027B681B6842449A60D0E0FEF7F2FE12
:10422000B860BB689A464FF0000BD046D94618EBF1
:10423000080349EB09049846A14618EB0A0849EB24
:104240000B094FF000014FF000024FEAC90242EAA9
:1042500058724FEAC801884691461AEB08054BEBA5
:1042600009067B685B6819464FF000024FF00003B7
:104270004FF00004940044EA91748B001A462346E0
:1042800028463146FBF7A4FF03460C461A46504B1E
:10429000A3FB02235B094FEA0318BB689B464FF060
:1042A000000CD946E24619EB09034AEB0A04994689
:1042B000A24619EB0B094AEB0C0A4FF000014FF034
:1042C00000024FEACA0242EA59724FEAC90189461E
:1042D00092461BEB09054CEB0A067B685B681946A6
:1042E0004FF000024FF000034FF00004940044EA46
:1042F00091748B001A46234628463146FBF768FF27
:1043000003460C461A46324BA3FB02135B09642199
:1043100001FB03F3D31A1B0132332D4AA2FB032303
:104320005B0903F0F0039844BB689B464FF0000C18
:10433000D946E24619EB09034AEB0A049946A2461C
:1043400019EB0B094AEB0C0A4FF000014FF0000289
:104350004FEACA0242EA59724FEAC90189469246B7
:104360001BEB09054CEB0A067B685B6819464FF0AE
:1043700000024FF000034FF00004940044EA9174EF
:104380008B001A46234628463146FBF721FF034699
:104390000C461A460E4BA3FB02135B09642101FB7A
:1043A00003F3D31A1B013233094AA2FB03235B092F
:1043B00003F00F027B681B6842449A60FFE700BF6E
:1043C0001437BD46BDE8F08F0010014000140140D5
:1043D0001F85EB5184B080B584B000AF786007F1E1
:1043E0001C0080E80E003B6B012B22D17B689B6B8D
:1043F00023F480327B689A637B68DB6823F4840350
:1044000023F040037A68D3607B68DB6823F44012B2
:104410007B68DA60FB6C012B05D17B68DB6843F4B9
:1044200080127B68DA60786800F04AF90346FB7313
:104430001AE07B68DB6843F040027B68DA607868EA
:1044400000F03EF90346FB733B6C002B06D17B6802
:104450009B6B43F480327B689A6305E07B689B6BBF
:1044600023F480327B689A63BB6A012B0BD17B6893
:104470009B6843F006027B689A607B689B6843F008
:1044800020027B689A60FB7B18461037BD46BDE86A
:10449000804004B0704780B483B000AF78607B6820
:1044A0009B6843F001027B689A60002318460C3732
:1044B000BD465DF8047B704780B483B000AF786080
:1044C0007B689B6823F001027B689A600023184692
:1044D0000C37BD465DF8047B704780B582B000AFF5
:1044E00078600B46FB707B68DB6823F0C0427B681A
:1044F000DA60FB78012B06D17B68DB6843F0005261
:104500007B68DA600BE0FB78002B06D17B68DB6808
:1045100043F080427B68DA6001E0012303E032204F
:10452000FCF718F8002318460837BD4680BD000088
:1045300080B485B000AF786039600023FB603B68D1
:104540009B0143F020027B681A61FB680133FB602A
:10455000FB68094A934201D9032306E07B681B6983
:1045600003F02003202BF0D0002318461437BD465B
:104570005DF8047B704700BF400D030080B485B038
:1045800000AF78600023FB607B6810221A61FB6833
:104590000133FB60FB68094A934201D9032306E01B
:1045A0007B681B6903F01003102BF0D00023184622
:1045B0001437BD465DF8047B704700BF400D030013
:1045C00080B489B000AFF860B96011461A460B4656
:1045D000FB711346BB80FB687B61BB68FB6197F88E
:1045E0002830002B1AD1BB8803339B083B61002382
:1045F000BB610FE0FB791A037B69134403F5805319
:104600001A46FB691B681360FB690433FB61BB69D5
:104610000133BB61BA693B699A42EBD30023184668
:104620002437BD465DF8047B704780B489B000AF85
:10463000F860B9601346FB80FB687B61BB68FB6177
:10464000FB8803339B083B610023BB610BE07B6964
:1046500003F580531A68FB691A60FB690433FB6138
:10466000BB690133BB61BA693B699A42EFD3FB690D
:1046700018462437BD465DF8047B704780B485B08A
:1046800000AF78607B685B69FB607B689B69FA6858
:104690001340FB60FB6818461437BD465DF8047B89
:1046A000704780B483B000AF78607B685B6903F0CB
:1046B000010318460C37BD465DF8047B70470000C7
:1046C00080B485B000AF78600023FB60FB680133E5
:1046D000FB60FB68134A934201D903231BE07B680C
:1046E0001B69002BF2DA0023FB607B681B6943F037
:1046F00001027B681A61FB680133FB60FB68094AB1
:10470000934201D9032306E07B681B6903F0010390
:10471000012BF0D0002318461437BD465DF8047B0A
:10472000704700BF400D030084B080B584B000AF77
:10473000786007F11C0080E80E007B68BB60BB68F6
:1047400003F560631A46002313607B689B6B43F498
:1047500000127B689A637B689B6B23F400227B6862
:104760009A637B689B6B23F480227B689A637B68E7
:10477000DB6B03F48073002B18D07B6A012B0AD10A
:10478000BB6803F580631B68BA6802F5806243F07A
:104790000403136014E0BB6803F580631B68BA6808
:1047A00002F5806223F00403136009E0BB6803F59F
:1047B00080631B68BA6802F5806223F0040313600B
:1047C00010217868FFF7B4FE7868FFF7D7FE002362
:1047D000FB6015E0FB685A01BB68134403F5A06356
:1047E0001A464FF0FF339360FB685A01BB681344CD
:1047F00003F5A0631A460023D360FB680133FB6016
:104800003B6AFA689A42E5D30121786800F0ACF877
:10481000C820FBF79FFE7B6800229A617B684FF0FF
:10482000FF325A617B68DB6B03F48073002B0BD083
:104830007B684FF400725A627B68144A9A627B6804
:10484000134AC3F8002109E07B6880225A627B6822
:10485000104A9A627B68104AC3F80021BB6A002B99
:1048600005D17B689B6943F010027B689A617B6885
:104870009A690A4B13437A689361002318461037EC
:10488000BD46BDE8804004B0704700BF0002000193
:104890000003E00080006000E0004000080020A36A
:1048A00080B485B000AF78600B46FB707B68FB601E
:1048B000FB6803F580631B68FA6802F5806223F0E9
:1048C00003031360FB6803F580631A68FB7803F049
:1048D0000303F96801F5806113430B60FB78012B3A
:1048E00007D1FB6803F580631A464BF680335360AB
:1048F00009E0FB78022B06D1FB6803F580631A46BA
:1049000041F270735360002318461437BD465DF8BA
:10491000047B704780B584B000AF78607B68FB6033
:104920000023BB60FB6803F588631B68BB60BB6842
:1049300023F02E03BB60BB68FA6802F5886243F47B
:10494000807313606420FBF705FEBB68FA6802F50C
:10495000886223F4807313600A20FBF7FBFD0023B9
:1049600018461037BD4680BD80B485B000AF786072
:104970000B46FB707B68FB600023BB60FB6803F5A4
:1049800088631B68BB60BB6823F02E03BB60BB68F9
:1049900003F48053002B09D1FB78012B06D1BB68AF
:1049A000FA6802F5886243F480531360BB6803F42D
:1049B0008053B3F5805F09D1FB78002B06D1BB682B
:1049C000FA6802F5886223F48053136000231846C6
:1049D0001437BD465DF8047B704780B485B000AFE6
:1049E00078607B68FB600023BB60FB6803F588632D
:1049F0001B68BB60BB685B0C03F0030318461437ED
:104A0000BD465DF8047B704780B485B000AF786028
:104A10007B68FB60FB6803F580639B689BB218466C
:104A20001437BD465DF8047B7047000080B487B042
:104A300000AF7860084611461A460346FB700B46E5
:104A4000BB7013467B700023FB757B68BB60FB78F3
:104A50005A01BB68134403F5A0631A464FF0FF33B5
:104A6000936097F82430032B7ED801A252F823F0EC
:104A7000814A00082B4B0008814A0008ED4A0008D3
:104A8000FB785A01BB68134403F5A0631A4640F251
:104A90009D43D36097F90230002B10DAFB785A015E
:104AA000BB68134403F5A063DB68FA785101BA6868
:104AB0000A4402F5A06243F48073D36057E07B6838
:104AC000DB6B03F48073002B51D0FB785A01BB6879
:104AD000134403F5A063DB68FA785101BA680A440D
:104AE00002F5A06243F06003D36040E0FB785A0116
:104AF000BB68134403F5A0631A4640F29D63D3607C
:104B000097F90230002B34DAFB785A01BB68134462
:104B100003F5A063DB68FA785101BA680A4402F52C
:104B2000A06243F48073D36023E0FB785A01BB6832
:104B3000134403F5A0631A4640F22523D36097F986
:104B40000230002B17DAFB785A01BB68134403F5D7
:104B5000A063DB68FA785101BA680A4402F5A062E2
:104B600043F4C073D36006E00123FB7504E000BF8B
:104B700002E000BF00E000BFBB6803F580639A69F4
:104B8000FB7803F00F03012101FA03F3B96801F583
:104B9000806113438B617B689B6943F000727B6883
:104BA0009A6197F90230002B03DA4FF400433B611E
:104BB00001E000233B6197F82030022B03D14FF432
:104BC0000033FB6001E00023FB607B789B0503F072
:104BD000FE52BB78DB0203F4F0431A4397F824300B
:104BE0009B0403F440231A433B8DC3F30A031A4387
:104BF0003B691A43FB785901BB680B4403F5A0637A
:104C00001946FB6813430B6097F82430032B0FD130
:104C1000FB785A01BB68134403F5A0631B68FA785C
:104C20005101BA680A4402F5A06243F000531360D0
:104C3000FB7D18461C37BD465DF8047B704700BFFE
:104C400080B58CB002AFF860B9601346FB71FB68A9
:104C50003B62BB685B78FB614FF480737B83FB68CE
:104C6000DB6B03F48073002B28D0BB681B79002B0F
:104C700024D1FB79002B0BD1BB685B79012B07D1C9
:104C8000BB685B781946F86800F02EFA002312E141
:104C9000FB79012B12D1FB695A013B6A134403F5DE
:104CA000A063DB68FA6951013A6A0A4402F5A0621E
:104CB00023F06003D360BB6800225A71BB681B6994
:104CC000002B18D0BB681B69BA6812891344013BDA
:104CD000BA681289B3FBF2F3FB84FA8C7B8B9A429D
:104CE0000BD97B8BFB84FB8CBA68128902FB03F225
:104CF000BB681A6101E00123FB84BB68DB78002BF1
:104D000006D0FB8CBA68128902FB03F2BB681A61F9
:104D1000BB681B69C3F31202FB8CD904684B0B40C0
:104D20001A43BB689B7A5B0703F0C043F9694801EB
:104D3000396A014401F5A06113430B61FB79002B33
:104D400009D0BB68D968FB695A013B6A134403F573
:104D5000A0630A465A613B6A03F580639B6803F0CF
:104D60000103002B0CBF01230023DBB27B76FB6920
:104D70005A013B6A134403F5A0631B68FA695101A9
:104D80003A6A0A4402F5A06223F000531360FB69FB
:104D90005A013B6A134403F5A0631A687B7E5B07E4
:104DA000F9694801396A014401F5A06113430B60B8
:104DB000FB695A013B6A134403F5A0631B68414A2F
:104DC0001360404B1B6823F080433E4A1360BB686E
:104DD000DB78002B06D03B4B1B6843F40043394A79
:104DE000136005E0374B1B6823F40043354A13601A
:104DF000344B1B6843F00043324A1360FB695A018D
:104E00003B6A134403F5A0631A462E4B1B681360DC
:104E1000FB79002B4ED1BB68DB78002B4AD1BB68F5
:104E20001B69002B46D0BB68DB79032B30D801A26D
:104E300052F823F0454E0008694E0008454E000820
:104E4000694E0008BB681B6903339B08FB82FA8A22
:104E5000FB68DB6A9BB29A421CD9FB689B6943F0F2
:104E60002002FB689A6115E0BB681B6903339B084D
:104E7000FB82FA8A3B6A03F580631B699BB29A4204
:104E80000AD9FB689B6943F08062FB689A6103E082
:104E900000BF02E000BF00E000BFBB68D968BB688C
:104EA0005A78BB681B6998B2002300930346F868E0
:104EB000FFF786FB002318462837BD4680BD00BF9C
:104EC0000000F81FB000002080B485B000AF78600B
:104ED0007B68FB60FB6803F580635B699BB21846E7
:104EE0001437BD465DF8047B704780B487B000AFCF
:104EF00078600B46FB707B683B61FB78FB600023AE
:104F00007B61FB685A013B69134403F5A0631B688E
:104F10009B0C03F00303BB60BB68002B02D0BB6893
:104F2000022B6CD1FB685A013B69134403F5A06363
:104F30001B68FA6851013A690A4402F5A06243F01D
:104F4000804313607B68DB6A03F47F03002B43D14B
:104F5000FB685A013B69134403F5A0631B68FA68B8
:104F600051013A690A4402F5A06223F0004313603C
:104F7000FB685A013B69134403F5A0631B68FA6898
:104F800051013A690A4402F5A06243F000431360FC
:104F9000FB685A013B69134403F5A0631B68FA6878
:104FA00051013A690A4402F5A06223F400431360F8
:104FB0007B6901337B617B69B3F57A7F1DD8FB6820
:104FC0005A013B69134403F5A0631B6803F00043D7
:104FD000B3F1004FECD080E0FB685A013B69134409
:104FE00003F5A0631B68FA6851013A690A4402F5A7
:104FF000A06243F0004313606FE000BF6DE0FB6808
:105000005A013B69134403F5A0631B68FA68510118
:105010003A690A4402F5A06243F0804313603B6999
:1050200003F580631B6903F47F03002B43D1FB6806
:105030005A013B69134403F5A0631B68FA685101E8
:105040003A690A4402F5A06223F000431360FB684A
:105050005A013B69134403F5A0631B68FA685101C8
:105060003A690A4402F5A06243F000431360FB680A
:105070005A013B69134403F5A0631B68FA685101A8
:105080003A690A4402F5A06223F4004313607B6985
:1050900001337B617B69B3F57A7F1DD8FB685A01C8
:1050A0003B69134403F5A0631B6803F00043B3F1AD
:1050B000004FECD011E0FB685A013B69134403F543
:1050C000A0631B68FA6851013A690A4402F5A062BC
:1050D00043F00043136000E000BF002318461C3774
:1050E000BD465DF8047B704780B487B000AF786040
:1050F0000B46FB707B687B61FB783B610123FB60A7
:10510000FB68DA04154B13403A6951017A690A4485
:1051100002F5A06243F0004313613B695A017B69C9
:10512000134403F5A0631B68BB60BB6823F0804396
:10513000BB60BB6843F00043BB603B695A017B69BD
:10514000134403F5A0631A46BB6813600023184696
:105150001C37BD465DF8047B704700BF0000F81F98
:1051600080B586B000AF78607B68FB6000237B6110
:105170007868FFF7A1F910217868FFF7D9F9786806
:10518000FFF7FCF900233B611FE03B695A01FB6814
:10519000134403F5A0631B68BB60BB6843F0804306
:1051A000BB60BB6823F00043BB60BB6823F40043D3
:1051B000BB603B695A01FB68134403F5A0631A46C0
:1051C000BB6813603B6901333B613B690F2BDCD942
:1051D00000233B6134E03B695A01FB68134403F54B
:1051E000A0631B68BB60BB6843F08043BB60BB68C7
:1051F00043F00043BB60BB6823F40043BB603B69E2
:105200005A01FB68134403F5A0631A46BB68136098
:105210007B6901337B617B69B3F57A7F0CD83B698D
:105220005A01FB68134403F5A0631B6803F00043B5
:10523000B3F1004FECD000E000BF3B6901333B61AC
:105240003B690F2BC7D9FB6803F580631A464FF003
:10525000FF3353617B684FF0FF325A617868FFF784
:105260001AF9002318461837BD4680BD90B589B09D
:1052700004AF7860012302220221786800F0BAFCB2
:105280000346FB73FB7BFF2B02D0FB7B012B01D979
:1052900002233DE1FB7B1946786800F08FFC034652
:1052A000BB73BB7B002B01D0022331E17B68D3F8B9
:1052B0007C43502006F07CFB0346E3617B68D3F817
:1052C0007C33DB69BB60BB68002B01D102231FE18B
:1052D00050220021B86806F086FBFB7B7A681A2111
:1052E00001FB03F3134403F24E331B785BB2002B34
:1052F00015DAFB7B7A681A2101FB03F3134403F2EE
:105300004E331A78BB685A70FB7B7A681A2101FB0E
:1053100003F3134403F554731A88BB685A81BB68BE
:105320005B781946786802F094F803461A46BB6821
:105330001A70BB681978BB6858787B6893F81C436F
:105340007B6893F81D33BA68528902920322019256
:10535000009323460246786802F04CF8BB681B783D
:1053600000221946786806F049FA002300220A2133
:10537000786800F03FFC0346FB73FB7BFF2B02D0F9
:10538000FB7B012B01D90223C2E0FB7B7A681A2147
:1053900001FB03F3134403F24E331B785BB2002B83
:1053A00016DAFB7B7A681A2101FB03F3134403F23C
:1053B0004E331A78BB68DA73FB7B7A681A2101FBDB
:1053C00003F3134403F554731A88BB685A8315E03A
:1053D000FB7B7A681A2101FB03F3134403F24E337B
:1053E0001A78BB689A73FB7B7A681A2101FB03F376
:1053F000134403F554731A88BB681A83FB7B7A68DD
:105400001A2101FB03F3134403F256331B785BB2FA
:10541000002B16DAFB7B7A681A2101FB03F3134495
:1054200003F256331A78BB68DA73FB7B7A681A2169
:1054300001FB03F3134403F556731A88BB685A83C0
:1054400015E0FB7B7A681A2101FB03F3134403F296
:1054500056331A78BB689A73FB7B7A681A2101FB72
:1054600003F3134403F556731A88BB681A83BB68A9
:105470009B7B1946786801F0ECFF03461A46BB682F
:105480005A73BB68DB7B1946786801F0E2FF03467C
:105490001A46BB681A73BB68597BBB68987B7B68EC
:1054A00093F81C437B6893F81D33BA68128B029201
:1054B00002220192009323460246786801F09AFF87
:1054C000BB68197BBB68D87B7B6893F81C437B68FF
:1054D00093F81D33BA68528B029202220192009314
:1054E00023460246786801F085FFBB68002283F8F6
:1054F0004C20BB685B7B00221946786806F07EF979
:10550000BB681B7B00221946786806F077F90023F8
:1055100018461437BD4690BD80B584B000AF7860A2
:105520007B68D3F87C33DB69FB60FB681B78002B5E
:105530000ED0FB681B781946786801F07AFFFB688B
:105540001B781946786801F0A5FFFB6800221A70E5
:10555000FB681B7B002B0ED0FB681B7B1946786811
:1055600001F067FFFB681B7B1946786801F092FF2A
:10557000FB6800221A73FB685B7B002B0ED0FB6874
:105580005B7B1946786801F054FFFB685B7B19462A
:10559000786801F07FFFFB6800225A737B68D3F8BC
:1055A0007C33DB69002B0BD07B68D3F87C33DB6961
:1055B000184606F005FA7B68D3F87C330022DA61DE
:1055C000002318461037BD4680BD80B584B000AFBB
:1055D00078607B68D3F87C33DB69FB60FB68403321
:1055E0001946786800F0B1F80346FB72FB7A002B8D
:1055F00005D17B68D3F8D433022178689847FB7AC9
:1056000018461037BD4680BD80B584B000AF7860C5
:105610000123FB730023BB737B68D3F87C33DB6906
:10562000BB60BB6893F84C30042B77D801A252F8CA
:1056300023F000BF495600084F5600087F56000867
:10564000F3560008015700080023FB736DE0BB68A8
:105650009B6C1946786800F097F80346BB73BB7BD8
:10566000002B04D1BB68022283F84C2058E0BB7B9E
:10567000012B55D0BB68042283F84C2050E0BB6856
:1056800040331946786800F060F80346BB73BB7B73
:10569000002B26D1BB68002283F84C20BB6893F80E
:1056A0004420BB689B6C1B799A423BD1BB6893F842
:1056B0004620BB689B6C9B799A4233D1BB6893F8B8
:1056C0004520BB689B6C5B799A422BD1BB681A6CF6
:1056D000BB689B6C1B689A4224D1786800F084F9FF
:1056E00020E0BB7B012B1DD0BB68042283F84C203B
:1056F00018E0786800F067F8786800F0F8F814E0CF
:105700000021786801F053F90346BB73BB7B002B83
:105710000AD1BB68002283F84C2005E000BF04E0FA
:1057200000BF02E000BF00E000BFFB7B184610375F
:10573000BD4680BD80B483B000AF786000231846BA
:105740000C37BD465DF8047B704780B582B000AF72
:10575000786039607B68A1221A747B6821225A74B0
:105760007B6800225A827B6800229A827B6807222B
:10577000DA823B6807221946786801F0F8FA034696
:1057800018460837BD4680BD80B582B000AF78604E
:1057900039607B6821221A747B6820225A747B68E6
:1057A00000225A827B6800229A827B680722DA8272
:1057B0003B6807221946786801F0D9FA0346184673
:1057C0000837BD4680BD80B586B002AF78607B6883
:1057D000D3F87C33DB69FB600023FB72FB6893F832
:1057E0004D30012B02D0022B25D07CE0FB685B6A98
:1057F000FA68128B93420CD9FB68D969FB681A8B43
:10580000FB68587B012300930346786801F0AFFDE5
:105810000CE0FB68D969FB685B6A9AB2FB68587B4D
:10582000012300930346786801F0A1FDFB68022282
:1058300083F84D2057E0FB685B7B1946786805F0DC
:10584000B3FF0346FB72FB7A012B36D1FB685B6A20
:10585000FA68128B93420ED9FB685B6AFA68128B66
:105860009A1AFB685A62FB68DB69FA68128B1A4461
:10587000FB68DA6102E0FB6800225A62FB685B6A3F
:10588000002B04D0FB68012283F84D2006E0FB6862
:10589000002283F84D20786800F092F87B6804229B
:1058A000C3F8E0237B68D3F8D8037B68D3F8E033F0
:1058B0000022194601F036FF14E0FB7A022B11D1C9
:1058C000FB68012283F84D207B680422C3F8E023A3
:1058D0007B68D3F8D8037B68D3F8E03300221946FD
:1058E00001F020FF00BF00BF1037BD4680BD80B56E
:1058F00086B000AF78607B68D3F87C33DB697B616E
:105900000023FB747B6993F84E30032B02D0042BE9
:105910000ED051E07B69196A7B695A8B7B691B7BCE
:10592000786801F049FD7B69042283F84E2043E04A
:105930007B691B7B1946786805F036FF0346FB74CC
:10594000FB7C012B37D17B691B7B1946786805F0FE
:1059500099FEF8607B699B6AFA689A4216D07B6967
:105960005B8B1A46FB68934210D97B699A6AFB6885
:10597000D21A7B699A627B691A6AFB681A447B694E
:105980001A627B69032283F84E2006E07B690022BD
:1059900083F84E20786800F01DF87B680422C3F875
:1059A000E0237B68D3F8D8037B68D3F8E033002288
:1059B000194601F0B7FE00BF00BF1837BD4680BDD5
:1059C00080B483B000AF786000BF0C37BD465DF88F
:1059D000047B704780B483B000AF786000BF0C37A1
:1059E000BD465DF8047B704780B483B000AF78603B
:1059F00000BF0C37BD465DF8047B7047B0B590B072
:105A000000AFF860B9601346FB71FB68002B01D151
:105A100002234DE0FB68FA7983F8CC23FB6800226F
:105A2000C3F87C23FB680022C3F88023F86800F0E9
:105A300047F8FB68002283F82323FB68002283F8E1
:105A40002023FB68002283F82123FB68002283F8CF
:105A50002223BB68002B03D0FB68BA68C3F8D423A9
:105A6000154B07F130040FCB84E80F0007F130032A
:105A70000021184601F02CFE0246FB68C3F8D8232B
:105A80000E4B07F114041D460FCD0FC495E8070017
:105A900084E8070007F11403F968184601F06DFD6A
:105AA0000246FB68C3F8DC23F86805F039FD0023E3
:105AB00018464037BD46B0BD88BB0008A4BB0008EF
:105AC00080B485B000AF78600023FB600023FB60EA
:105AD00009E07A68FB68E0339B00134400225A60B7
